:100000000C94CA010C94E7010C94E7010C94D81BE2
:100010000C94E7010C94E7010C94E7010C94E701C0
:100020000C94E7010C94E7010C940B170C94C71681
:100030000C9408180C94E7010C94E7010C94E70168
:100040000C94E7010C94E7010C94E7010C94E70190
:100050000C94E7010C94E4170C94E7010C94E7016D
:100060000C94E7010C94E7010C94E7010C94E70170
:100070000C94E7010C94E7010C94E7010C94E70160
:100080000C94E7010C94E7010C94E7010C94E70150
:100090000C94E7010C94E7010C94E7010C94E70140
:1000A0000C94E7010C94E7010C94E701290014007B
:1000B0001A000800150017002B00040016000700A6
:1000C00009000A00E1001D001B00060019000500E0
:1000D000000000000000E200E00022524C0013008B
:1000E00012000C0018001C00340033000F000E003A
:1000F0000D000B00E500380037003600100011003D
:100100000000000000002A002C00215229001E02DD
:100110001F022F0230023102E000200221022602DB
:1001200027022402E100220223022F0030002502D0
:10013000000000000000E300E00000004C002E0082
:100140002D005200650035004A0028004F00510084
:10015000500057004D000000000000000000560055
:1001600000000000000003520000000000001E001C
:100170001F002000210022003A003B003C003D000F
:100180003E003F0040004100420043004400450063
:100190000000000000000000000000000000270038
:1001A00026002500240023004B00A900BB00AE0060
:1001B000BC00A8004E00AA00AB00AC00000000008C
:1001C00000000000000000000000000029001400F2
:1001D0001A000800150017002B0004001600070085
:1001E00009000A00E1001D001B00060019000500BF
:1001F000000000000000E0002C0000004C00130094
:1002000012000C0018001C00340033000F000E0018
:100210000D000B00E500380037003600100011001B
:10022000000000000000000000000052050109026B
:10023000A10185020901A10005091901290815007C
:1002400025019508750181020501093009311581E3
:10025000257F95027508810609381581257F95014E
:1002600075088106050C0A38021581257F950175F0
:10027000088106C0C005010980A101850319012A72
:10028000B700150126B700950175108100C0050C57
:100290000901A101850419012AA002150126A00265
:1002A000950175108100C005010906A101850605AB
:1002B0000719E029E7150025019508750181020558
:1002C00007190029EF1500250195F0750181020538
:1002D000081901290595057501910295017503918C
:1002E00001C005010906A101050719E029E715006C
:1002F00025019508750181029501750881010507A1
:10030000190029FF150026FF0095067508810005D4
:10031000081901290595057501910295017503914B
:1003200001C009023B00020100A0FA09040000011B
:10033000030101000921110100012240000705818C
:100340000308000109040100010300000009211154
:1003500001000122B60007058203200001120100FE
:100360000200000008534601000100010200010CD8
:100370000343006F0072006E00650000001003660A
:10038000006F006F007300740061006E00000004D5
:100390000309040011241FBECFEFDAE0DEBFCDBF9A
:1003A00011E0A0E0B1E0E4EEFBE302C005900D92A5
:1003B000A436B107D9F722E0A4E6B1E001C01D924E
:1003C000AE38B207E1F70E942F180C94B11D0C94BF
:1003D0000000FC01AC014C5F5F4F8FEF91E3219176
:1003E000822728E030E087FF09C0880F8927215045
:1003F0003109C9F7E417F50791F70895880FF7CF8A
:10040000E8EDF0E080818E7F80831092E200109210
:10041000DA001092E100A0EEB0E08C9181608C9344
:1004200080818F77808319BCA7EDB0E08C918E7F9F
:100430008C9380818F7E808310925C02089520913E
:10044000E4003091E50095E6A9012091EC00822FAF
:10045000817020FF06C08091E80080FF06C080E028
:1004600008952091E80022FD1AC08091810288231E
:1004700089F0853089F08091EB0085FD0FC02091D7
:10048000E4003091E50042175307F9F29150E1F68C
:1004900084E0089582E0089583E0089581E008955E
:1004A0008091830287FF13C08091E80082FF06C01D
:1004B0008091E8008B778093E80004C080918102EE
:1004C0008111F2CF0895809181028823D9F3809120
:1004D000E80080FFF8CF8091E8008E77ECCF982F6E
:1004E0009093E900242F762F50E0891731F0709116
:1004F000EC002091ED005091F00021FD07C09F5FBE
:10050000973071F78093E90081E008953091EB0016
:100510003E7F3093EB003091ED003D7F3093ED0056
:100520003091EB0031603093EB007093EC0020933E
:10053000ED005093F0002091EE0027FDE0CF80E029
:100540000895B0E0A0E0E7EAF2E00C94FE1CC8EDEC
:10055000D0E088818F7E8883E7EDF0E08081816044
:10056000808384E082BF81E080935C0288818E7FFB
:10057000888302EE10E0F80110821092DA0081EE1A
:10058000C82ED12CF601108288818F7788838881CC
:100590008068888388818F7D888319BC109281024E
:1005A000109282021092800210927F0290EEE92E49
:1005B000F12CF70180818B7F808388818160888323
:1005C00042E060E080E00E946F02F60180818E7F51
:1005D0008083F8018081816080838081886080834E
:1005E000F70180818E7F8083888180618883CDB789
:1005F000DEB7E8E00C941A1DFC018091890290910D
:100600008A0286179707A0F06115710529F4909169
:10061000E8009E779093E80090E06115710551F431
:10062000911108C08091E80082FF34C080E00895F5
:10063000BC01F2CF809181028823C1F18530C1F1E4
:100640008091E80083FD30C08091E80082FDEACF10
:100650008091E80080FFE1CF8091F3002091F200CB
:10066000382F6115710519F02830310558F091E0E7
:100670002830310509F090E02091E8002E77209392
:10068000E800CBCF81918093F100615071092F5F19
:100690003F4FE7CF80918102882341F0853041F0C0
:1006A0008091E80083FFBECF81E0089582E0089545
:1006B00083E0089580915E02089587E797E790931D
:1006C00001088093000888E19AE00FB6F894A89595
:1006D000809360000FBE90936000FFCF9C014FB7E6
:1006E000F8948091560290915702A0915802B091CF
:1006F00059024FBF821B930B08952FB7F894609156
:1007000056027091570280915802909159022FBF62
:1007100008952FB7F8948091560290915702A091B6
:100720005802B09159022FBF089520912101222330
:10073000C9F020915A0227FF15C0E62FE695E695ED
:10074000E695EE31D8F4E80FF92FF11D677021E03E
:1007500030E001C0220F6A95EAF7209582812823B4
:1007600022830895FC01329608962191621303C0FA
:10077000DF0111971C92E817F907B9F70895209146
:1007800021012223C1F020915A0227FF14C0E62F35
:10079000E695E695E695EE31F8F4E80FF92FF11DB0
:1007A000677021E030E001C0220F6A95EAF782818C
:1007B000822B82830895FC0132962FEF30E0419125
:1007C000641751F02F3F19F4411101C0232F3F5FEF
:1007D0003630A9F72F3F09F40895820F911D27FDA8
:1007E0009A95FC0162830895A3E0B0E0EAEFF3E09C
:1007F0000C94041D2091530230915402281739079C
:10080000A1F09093540280935302E0915102F09131
:100810005202309751F024E029839B838A8306801B
:10082000F781E02DCE01019609952396E2E00C9424
:10083000201DA3E0B0E0EFE1F4E00C94041D209152
:100840004F023091500228173907A1F090935002BF
:1008500080934F02E0915102F0915202309751F093
:1008600023E029839B838A830680F781E02DCE01D4
:10087000019609952396E2E00C94201D0E948903BD
:100880009C0190914B0280914C02982B21F0309367
:1008900048022093470290914D0280914E02982B7E
:1008A00021F03093460220934502E0915102F091ED
:1008B0005202309749F082E0809349020480F5812A
:1008C000E02D89E492E0099508958091440280FD2D
:1008D00016C081FD16C082FD16C080914302882398
:1008E000A1F0883280F428E0829FC001112468E2E0
:1008F00070E00E942B1D862F672B39F0089582E04F
:10090000089584E0089588E0089581E00895809135
:10091000440280FD14C081FD14C082FD16C0809188
:100920004202882381F08E3180F420E5829FC0014D
:1009300011246EE170E00E942B1D862F089584E142
:10094000089588E2089588E0089580E5089580E09C
:100950000895F894E82FE295EF70F0E031A1282F88
:100960002F7081E090E001C0880F2A95EAF7982F58
:100970009095932391A392A1892B82A378940895B3
:1009800090915A0292FF06C0282F28712830F9F45E
:10099000877F846093FF06C0282F28712831F1F4E7
:1009A000877E846120915B0220FF06C0382F38715A
:1009B0003830D9F4877F816021FF06C0282F287145
:1009C0002831D1F4877E816194FD877E0895282F98
:1009D00024712430F9F68B7F8860DCCF282F2471B6
:1009E000243101F78B7E8861DDCF382F31713130B2
:1009F00019F78E7F8860E0CF282F2171213121F7F0
:100A00008E7E8861E1CF972F7830B8F46630A8F4F5
:100A1000843098F470E026E0929F600D711D1124DF
:100A2000FB0190E3899FE00DF11D1124EE0FFF1FE4
:100A3000E455FF4F85919491089580E090E00895EA
:100A4000CF93DF93EC0182389105B9F108F041C0F2
:100A50008133910509F49FC050F58932910509F45D
:100A60008FC08A9709F49EC0C11520E5D20708F00F
:100A7000BDC0C11530E4D30708F00AC1C03ED1059E
:100A800008F0A5C0CD3CD10508F000C1C83AD10599
:100A900008F08FC0C53AD10508F0F0C0C130D105CB
:100AA00039F1209729F1C430D10510F546C08533BE
:100AB000910509F460C0C997B9F680915A02837014
:100AC00009F044C180915B0283FF12C0C9E2D0E00B
:100AD0000FC0833E9105A1F178F4803E910509F1A4
:100AE000823E910509F0C0CF80915A0282FD21C05B
:100AF000CE01DF91CF910895863E910561F1873E49
:100B0000910571F1843E910509F0AECF80915B02B1
:100B100081FFEECF80915A02C7EED0E084FD0DC078
:100B2000E7CF80915A0280FD33C090915B0290FF25
:100B3000DFCFC3EED0E084FFDBCFD0E0C0E0D8CF82
:100B400080915A0282FDFFC090915B0290FDFEC031
:100B500084FFCECFF2CF80915A0283FDDDCFC8CF84
:100B600080915A0283FDF5C090915B0291FFF0CF16
:100B7000C4EED0E0BDCF80915A0285FFB9CFA6CF99
:100B800080915A0285FDE8C080915B0283FFB0CF5F
:100B9000C9E3D0E0ADCF80915A0286FFA9CFCAE267
:100BA000D0E0A6CF80915A0286FFA2CFC1E3D0E069
:100BB0009FCFC13CD10508F6C85AD0E0CC0FDD1F4D
:100BC000CB5DDE4F0990D881C02DD46491CFC11583
:100BD00040E2D40708F0AAC0C11581E0D80708F0A8
:100BE00087CFC83ED10508F483CFA7CFC03622E512
:100BF000D20718F5C03432E5D30708F053C0C0322D
:100C000042E5D40708F047C0C11582E5D80708F4CB
:100C10007FC02C2F2695269540E2249F9001112419
:100C20008C2F8370C1E0D0E002C0CC0FDD1F8A950D
:100C3000E2F7C22BD32BDD685BCFC03A22E5D207A7
:100C400060F4C03832E5D30708F441C0CF71D0E07A
:100C5000DC2FCC27C46FD06A4BCFC03C42E5D40711
:100C600008F44AC0C03E82E5D80708F066CFDC2F02
:100C7000CC27CC27DF71C06FD06A3ACFC55AD0E0FD
:100C8000CE5DDE4FC881D0E0D06432CFD06530CFAA
:100C9000DF70D06A2DCFCF71D0E0DC2FCC27C16FB1
:100CA000D06A26CF2C2F26952695277080E2289F84
:100CB000900111248C2F8370C1E0D0E002C0CC0FD2
:100CC000DD1F8A95E2F7C22BD32BDC6811CF2C2FC6
:100CD00026952695277040E2249F900111248C2FA1
:100CE0008370C1E0D0E002C0CC0FDD1F8A95E2F72F
:100CF000C22BD32BDA68FCCE8C2F8F710E94C004DC
:100D0000C82FD0E0DC2FCC27CC27DF71D062F0CE0B
:100D10008C2F8F710E94C00435E0D695C7953A9507
:100D2000E1F7CF709C2FEC01D069E2CE8D2F8F714F
:100D30000E94C00490E0982F882788279F719C010B
:100D40002C2BE901E3CFC2EED0E0D2CEC0EED0E052
:100D5000CFCEC6EED0E0CCCEC5E3D0E0C9CE8091F8
:100D6000FA0181111092FA01089580959091F9018C
:100D700098239093F90108958091D6019091A5014F
:100D8000981301C008958F5F8770FACFB0E0A0E09C
:100D9000ECECF6E00C94FD1C7C0100912C0210910F
:100DA0002D0280912A0290912B02082B192BCFE063
:100DB000D0E0CC24C394D12CBC2EC6010C2E02C092
:100DC000880F991F0A94E2F780239123892B49F415
:100DD000219790F7B12C8B2DCDB7DEB7E9E00C94BD
:100DE000191DB7018C2F0E9403050E942005019751
:100DF00079F3F1CFCF93DF93EC010E94C606BE01D9
:100E00000E9403050E942005DF91CF91089598303C
:100E100078F5863068F5E82FF0E086E0989FE00DE1
:100E2000F11D11249E2F977083E0F695E7958A9522
:100E3000E1F7EE0FFF1FEE0FFF1FE957FE4F50E0E7
:100E400040E080E0219130E0092E02C036952795E0
:100E50000A94E2F721703327042E01C0220F0A946E
:100E6000EAF7822B4F5F5F4F4430510559F70895E1
:100E700080E00895983098F5863088F5E82FF0E006
:100E800086E0989FE00DF11D11248E2F877041E0C0
:100E900001C0440F8A95EAF783E0F695E7958A95B5
:100EA000E1F7EE0FFF1FEE0FFF1FE957FE4F30E097
:100EB00020E070E05191DF011197CB01022E02C0BA
:100EC000969587950A94E2F781708195852784230A
:100ED00085278C932F5F3F4F2430310559F70895B4
:100EE00090932D0280932C02089521E030E002C0FF
:100EF000220F331F8A95E2F72095309580912C02BE
:100F000090912D02822393230E947007089590915F
:100F1000D701809589238093D701282F277091F4DA
:100F2000282F082E000C330B9217130659F09091BE
:100F30005B0292FF07C08595859585950E94750790
:100F40001092D701089521E030E002C0220F331F34
:100F50008A95E2F780912C0290912D02822B932B9F
:100F60000E947007089590932B0280932A0208959F
:100F7000FC0183819481892B29F0808191818923CF
:100F80008F3F51F480E00895843FE1F717C0883E19
:100F9000A8F0813FB9F712C0808191810E94FA06C2
:100FA00092959F70963099F358F4925F9F709230AB
:100FB00048F7803F19F040F7883E20F781E0089518
:100FC0009A5FF4CF662309F45DC08D3C41F40E9422
:100FD0008704819580934C020E943E0408958E3CC4
:100FE00019F40E948704F6CF8F3C31F40E948704E5
:100FF000819580934B02F0CF803D19F40E948704C5
:10100000F8CF893D29F40E94650480934D02E4CF16
:101010008A3D21F40E9465048195F7CF8B3D31F420
:101020000E946504819580934E02D6CF8C3D19F4C1
:101030000E946504F8CF9FE2980F983070F4815DAC
:10104000990B21E030E001C0220F8A95EAF78091E8
:101050004A02822B80934A02BFCF8D3D31F48091AA
:101060004402816080934402B7CF8E3D21F4809189
:1010700044028260F7CF8F3D09F0AECF80914402E9
:101080008460F0CF40914B028D3C59F480914C022A
:1010900087FF0DC010924C0241110BC0109242020A
:1010A00008C08E3C81F480914C0218169CF34423B6
:1010B00081F080914D0290914E02892B09F08CCFE6
:1010C0001092430289CF8F3C49F447FFF0CF109232
:1010D0004B0280914C028111ECCFE0CF803D19F49E
:1010E0001416ACF3E4CF90914D02893D29F4191602
:1010F000F4F610924D02DBCF8A3D19F497FFD7CF5B
:10110000F8CF90914E028B3D29F497FFD0CF1092EB
:101110004E02CDCF8C3D19F41916CCF3C8CF9FE207
:10112000980F983090F4815D990B21E030E0B9017F
:1011300002C0660F771F8A95E2F7CB0180959091E8
:101140004A02892380934A02B2CF8D3D31F48091C7
:1011500044028E7F80934402AACF8E3D21F4809179
:1011600044028D7FF7CF8F3D09F0A1CF80914402DB
:101170008B7FF0CF0F931F93CF93DF938B01EA0107
:1011800090918102943061F58093E9008FEF909106
:10119000E800815095FD06C095ED9A95F1F70000A5
:1011A0008111F5CF8091E80085FF1AC00E941F02CF
:1011B000811111C08091E80085FD06C08091E80092
:1011C0008E778093E800F2CFF80181918F018093B0
:1011D000F100219779F78091E8008E778093E800FD
:1011E000DF91CF911F910F91089543E050E0BC0132
:1011F00082E00E94BA08089546E050E0BC0182E017
:101200000E94BA080895CF93DF93EC0180912101E9
:10121000811111C048E050E0BE0181E00E94BA088F
:1012200080E2FE01AFE5B2E001900D928A95E1F710
:10123000DF91CF91089580915A0287FF05C040E267
:1012400082E050E0BE01EACF48E081E0FACFB0E0B2
:10125000A0E0EDE2F9E00C94FC1C7C015B016A016A
:1012600080911B0201E010E08A3010F40AE010E0E7
:10127000C1E0D0E0B501C701F6010995811104C0B4
:1012800021960C171D072CF4CDB7DEB7EAE00C94BD
:10129000181DCC9F9001CD9F300D300D112490E092
:1012A00080E045E34A95F1F7000001968217930725
:1012B000C1F7E0CF80910502811110C08091D80064
:1012C00080618093D8008AE18A95F1F700C080910F
:1012D000D90080FF0AC081E08093050281E09091EF
:1012E0000502913009F080E0089582E080930502C4
:1012F0000E94000210928102F1CF0E945A098823B5
:1013000059F0E0915102F0915202309729F001908A
:10131000F081E02D0995089580E008958091F9010C
:101320009091F801892B809366019091FA0199239D
:10133000A1F0892B80936601809121018823E1F13E
:1013400080915A0287FF38C08EE1E8E6F1E090E034
:101350008150A0F591110E94AF0640E250E068ED87
:1013600071E086E691E00E949B1D892B21F180E2CD
:10137000E6E6F1E0A8EDB1E001900D928A95E1F783
:10138000E0915102F09152023097A9F08091210131
:10139000882359F080915A0287FF07C08091660127
:1013A0008093670186E0809366010280F381E02DDF
:1013B00086E691E00995089586E0C7CF2191222322
:1013C00039F29F5FC5CF882321F00E94B5060E94A5
:1013D0008E090895882339F09091F901982B909304
:1013E000F9010E948E090895882399F19CEF980FC6
:1013F000913A40F4682F86E691E00E9495030E949E
:101400008E09089590E2980F983050F4877091E01B
:1014100001C0990F8A95EAF7892F0E94B506EFCF90
:101420009BE5980F933028F490E080E00E94190427
:10143000089598E5980F993128F490E080E00E9493
:10144000F403089593E3980F933118F460E00E9439
:10145000E2070895CF93C82F8823D1F18CEF8C0F2A
:10146000813AC0F580912101882311F180915A02BF
:1014700087FF1EC0EC2FE695E695E695F0E0EA5969
:10148000FE4F828190E04C2F477021E030E002C097
:10149000220F331F4A95E2F782239323892B89F089
:1014A0006C2F86E691E00E9495030E948E0909C088
:1014B000E8E6F1E08191C81799F381E0EE36F8078C
:1014C000C9F76C2F86E691E00E94BF030E948E0947
:1014D000CF91089580E28C0F883068F4C77021E0C6
:1014E00030E001C0220FCA95EAF78091F901822B02
:1014F0008093F901EBCFEBE5EC0FE33040F4F0E043
:10150000EE5DFE4F808190E00E941904E1CFE8E596
:10151000EC0FE93150F4F0E0EE0FFF1FEB5DFE4FF2
:10152000808191810E94F403D3CF83E38C0F8331B8
:1015300078F661E08C2F0E94E207CACF0F931F93C9
:10154000CF93DF93C62FD42F022FFC0182818823F3
:10155000A9F060938D020E94890390938C0280937E
:101560008B02C77081E001C0880FCA95EAF70E941C
:10157000EA09DF91CF911F910F91089580918D021B
:10158000681335C080918B0290918C020E946E038B
:10159000883C910560F510E21D0FCD17B9F080E28F
:1015A0008C0F883040F4C77081E001C0880FCA9565
:1015B000EAF70E94E309183048F481E09D2F977004
:1015C00001C0880F9A95EAF70E94EA09802F0E94CD
:1015D0002A0A802F0E94F409183058F6D77081E04B
:1015E00001C0880FDA95EAF70E94E309C2CFC770FD
:1015F00081E001C0880FCA95EAF7F6CF90915B02AF
:1016000092FB222720F9281779F080FB92F990931A
:101610005B0260915A0270915B0284E090E00E944C
:10162000851D82E00E94870708951092F90180913C
:101630002101E8E6F1E0882329F180915A0287FF31
:1016400021C08EE1DF011D928A95E9F790E080E0EC
:101650000E94190490E080E00E94F4031092F801C7
:101660000E948E0986E0E9E4F2E0DF011D928A958E
:10167000E9F71092420210924302109244020E9433
:101680003E04089586E0DECFAAE2B0E0EAE4FBE0A3
:101690000C94031D83E892E02091F100FC0121935A
:1016A000CF01F2E08B389F07B9F780918402833035
:1016B00009F470C0B8F4813009F447C0823009F4ED
:1016C000B1C08091E80083FF7EC280918302909137
:1016D00084029A3008F077C2E92FF0E0ED54F24E20
:1016E0000C943F1D8A3009F48CC08B3009F46FC014
:1016F000893039F780918302813219F7809187020E
:10170000909188020297E8F68091E800877F8093A5
:10171000E8008091E80082FF38C09091F30080914A
:10172000F200029731F48091F100813011F086309F
:1017300021F48091F10080935E028091E8008B7724
:101740008093E8000E945002BCCF80918302813ACE
:1017500009F0B7CF8091E800877F8093E8008091FF
:10176000870290918802892B61F460E28FE592E014
:1017700070E00E94FC028091E8008B778093E80083
:10178000A0CF60E090E080E0F3CF809181028111F2
:10179000C0CF97CF80918302813A09F092CF809198
:1017A000870290918802892B09F08BCF8091E80005
:1017B000877F8093E8008091E80080FFFCCF8091D4
:1017C00021018093F1008091E8008E77B9CF80915C
:1017D0008302813209F075CF80918702909188024F
:1017E000892B09F06ECF8091E800877F8093E80015
:1017F0000E94500280918502809321010E94150B66
:1018000060CF80918302813209F05BCF8091E80044
:10181000877F8093E8000E94500280918602809327
:101820005D024FCF80918302813A09F04ACF8091C7
:10183000E800877F8093E8008091E80080FFFCCF7C
:1018400080915D02BECF803899F0823809F0BBC12B
:10185000809187028F70873008F0B5C18093E900CE
:101860008091EB0085FB882780F91092E90006C083
:1018700080917F0290918002911182609091E800A6
:10188000977F9093E8008093F1001092F10080918F
:10189000E8008E7794C1882309F482C1823009F070
:1018A00092C180918502811185C1809187028F70DC
:1018B0002FEF280F263008F086C18093E900209191
:1018C000EB0020FF77C1933031F48091EB00806210
:1018D0008093EB006FC19091EB0090619093EB00CF
:1018E00021E030E001C0220F8A95EAF72093EA0058
:1018F0001092EA008091EB008860EACF811163C109
:10190000109185021F778091E3008078812B80936E
:10191000E3008091E800877F8093E8000E945002F6
:101920008091E80080FFFCCF8091E3008068809385
:10193000E30082E0111183E08093810244C180586A
:10194000823008F040C180918502909186028C3DE2
:1019500023E09207A1F583E08A838AE289834FB767
:10196000F894DE01139620E03EE051E2E32FF0E030
:1019700050935700E49120FF03C0E295EF703F5F62
:10198000EF708E2F90E0EA30C0F0C7968D939D9354
:101990002F5F243159F74FBF8091E800877F8093F4
:1019A000E8006AE270E0CE0101960E94FC0280919C
:1019B000E8008B778093E80006C1C096E7CF40919E
:1019C000870250918802292F33272330310509F4EB
:1019D00044C078F52130310509F46FC08BE390E005
:1019E000E2E2F3E02230310509F0EDC02091E80099
:1019F000277F2093E8002091890230918A02821784
:101A0000930708F49C0140E02115310509F064C0FA
:101A1000411162C08091E80082FDC9CF80918102AE
:101A2000882329F2853019F28091E80083FFF2CFF4
:101A3000BECF21323105A9F12232310509F0C3C0F0
:101A40004115510509F443C04130510509F0BBC0AF
:101A500086EB90E0ECE2F2E0C9CF99278130910566
:101A6000C1F0009759F0029709F0ADC0EFE6F3E03E
:101A7000E4918E2F90E0EFE6F3E007C0EFE8F3E0AB
:101A8000E4918E2F90E0EFE8F3E0009709F49BC01B
:101A9000ADCFEDE7F3E0E4918E2F90E0EDE7F3E0DA
:101AA000F4CF4115510571F04130510509F08BC05B
:101AB00089E090E0EDE4F3E099CF82E190E0EDE59C
:101AC000F3E094CF89E090E0E4E3F3E08FCF80E4AB
:101AD00090E0E2EEF2E08ACF80918102882309F45F
:101AE00066CF853009F463CF8091E80083FD5FCF36
:101AF0008091E80082FD8ECF8091E80080FF84CF46
:101B00009091F3008091F2002115310519F0883091
:101B1000910550F041E0089709F040E08091E8001D
:101B20008E778093E80070CF44914093F100319616
:101B3000215031090196E8CF803809F044C08091E6
:101B4000E800877F8093E800809182028093F10013
:101B50009ECE811138C0109185021230A0F580917F
:101B6000E800877F8093E800109382020E94500271
:101B7000112311F084E005C08091E30087FDFACFC6
:101B800081E08093810242E061EC81E00E946F027B
:101B900042E261EC82E00E946F028091810213C0F8
:101BA00080918502813079F481E0933009F080E002
:101BB000809380021092E9008091E800877F8093F3
:101BC000E8000E9450028091E80083FF0AC08091E3
:101BD000E800877F8093E8008091EB00806280932B
:101BE000EB00AA96E3E00C941F1D0E94150B2FEF4B
:101BF00084E39CE0215080409040E1F700C0000069
:101C000088E19AE00FB6F894A895809360000FBE23
:101C100090936000FFCFA5E0B0E0E1E1FEE00C941E
:101C2000FA1C7C01FC0183819481892B31F0808135
:101C3000918189238F3F09F09DC32596ECE00C9498
:101C4000161D0E94C606182F682F89819A810E944E
:101C50003A0769817A81812F0E9403058C01FC017A
:101C6000E851FC47E730F10588F5E354F24E0C9457
:101C70003F1D26E241EE61EEC7010E949E0A80915F
:101C8000D7018770D1F2F70182818823B1F2809168
:101C90005B0282FFD2CF82E00E948707CECF27E28D
:101CA00045EE65EEE9CF26E241EE60EEE5CF27E2B4
:101CB00045EE64EEE1CF26E241EE62EEDDCF27E2B3
:101CC00045EE66EED9CF28E241E0EBCFF701828105
:101CD000882309F476C310928D02C8019057839728
:101CE00008F059C384E090E00E94611D90935B026C
:101CF00080935A02F801E150F047E232F10520F4F6
:101D0000EC53F24E0C943F1D80915A0281608093F7
:101D10005A0295C080915B02886080935B028FC0FD
:101D200080915A028260F3CF80915A028460EFCF93
:101D300080915A028860EBCF80915B028160EDCF89
:101D400080915B028260E9CF80915A028061DFCF8F
:101D500080915A028062DBCF80915A028064D7CF93
:101D60000E94150B80915A028068D1CF80915A024F
:101D70008C60CDCF80915B028360CFCF80915A027F
:101D80008E7FC5CF80915B02877FC7CF80915A023B
:101D90008D7FBDCF80915A028B7FB9CF80915A023F
:101DA000877FB5CF80915B028E7FB7CF80915B023A
:101DB0008D7FB3CF80915A028F7EA9CF80915A0236
:101DC0008F7DA5CF80915A028F7BA1CF0E94150BEA
:101DD00080915A028F779BCF80915A02837F97CF51
:101DE00080915B028C7F99CF80915A0282FB992768
:101DF00090F921E0922790FB82F990FB83F987CF3D
:101E000080915B02982F909591708E7F892B90FB2B
:101E100081F983CF90915A02892F8F7B96FF80643E
:101E200076CF0E94150B90915A02892F97FB87F964
:101E300080586DCF61E08EE090E00E94671D609158
:101E40005A0270915B0284E090E00E94851D0E941E
:101E5000150B15CF60E0EFCF90915A02892F8F7E3E
:101E600094FF806154CF90915A02892F8E7F90FF0A
:101E700081604DCF90915B02892F877F93FF8860AF
:101E80004CCF0E94150BFFEF24E33CE0F1502040C3
:101E90003040E1F700C000000E945D036FEF7FEF6C
:101EA00090E080E00E94851D0E94F50D80915B020C
:101EB00082FB882780F991E089270E94FE0AF701BA
:101EC000828100811181882309F443C0C8010E94E6
:101ED000C606D82E682FC8010E943A07B8018D2D7A
:101EE0000E9403050E9420058C01882EF701D280F4
:101EF000B580B2943FE0B3228091D7018770C1F0E2
:101F0000AD2CDD20B1F0812F807F803421F080E284
:101F1000800F883068F080915B0282FF09C082E008
:101F20000E9487078091D7018770AA24A39481110A
:101F3000A12C912E92942FE09222FBE0F91508F447
:101F400074C0E92DF0E0EA51F24E0C943F1D80E0A0
:101F5000B4CFC8010E940707D82EC0CF212F2F7001
:101F6000C22E107F19F0C29490EFC922DD20B9F083
:101F7000CC2069F080E2800F883010F0811009C019
:101F80008091F901C82AC092F9010E948E09802F20
:101F90004AC08091F801C82AC092F801F6CF802F7C
:101FA0000E94F409CC2009F440C0005E083010F013
:101FB000811004C08C2D0E94B50606C0C09480918B
:101FC000F801C822C092F8010E948E092EC0312F5C
:101FD0003F70C32E107F103219F0C29480EFC822D8
:101FE000882089F081E0881609F47CC0DD2009F49E
:101FF00086C0BB2009F47CC0F701858180FFC7CF74
:102000008F70858375C020915B0222FD43C0DD2067
:10201000D9F1CC2039F08091F901C82AC092F90198
:102020000E948E0980E00E942A0AE92DE850FF0BE9
:10203000349710F40E947D09AA20A9F08091D7015D
:1020400080FD11C0F70112828595859585950E94C6
:10205000A307C7010E940B0E8091D7018595859536
:1020600085950E94750785E0F701DE0111960190C4
:102070000D928A95E1F709811A81C8010E9407072C
:10208000B8010E940305D9CD80E00E94F409CC205C
:1020900061F290CFDD20A1F09091FA018C2D892B77
:1020A000B11003C00E94EA09C0CFE1E0BE12FACF2E
:1020B00022FFBBCF891709F4B8CF8093FA01B5CFBF
:1020C000B11006C00E94AF068C2D0E94E309ADCF6F
:1020D000F1E0BF1609F4A9CF8C2D0E94E3090E94FC
:1020E000AF06A3CFDD2031F025E02B1508F49DCFFE
:1020F0008C2DD8CF34E03B1508F497CFE5CFBB202B
:1021000019F3F9E38F122FC12FEF37EE83E021503F
:1021100030408040E1F700C0000025C1812F869546
:102120008695837061F0813009F07FCFC80193708C
:10213000D11002C080E090E00E94F40376CFC80185
:102140009370D11002C080E090E00E9419046DCF1E
:102150006D2D802F0E94E20768CF812F837009F0D8
:102160003FC0D11062CF402F429546954770440F33
:10217000440F802F8F7090E0042E02C0880F991FAB
:102180000A94E2F730E020E004FF09C02FE030E0DD
:1021900002C0220F331F4A95E2F72095309516951D
:1021A00016951370123099F078F440912A025091EC
:1021B0002B02113039F0822B932B842395230E941C
:1021C000B30733CF842B952B822B932BF8CF822B05
:1021D000932B20912A0230912B0282279327EFCF55
:1021E0008695DD2011F0812F8170882309F41DCFA1
:1021F000402F429546954770440F440F802F8F70B3
:1022000090E0042E02C0880F991F0A94E2F730E094
:1022100020E004FF09C02FE030E002C0220F331F8E
:102220004A95E2F720953095169516951370123061
:1022300099F078F440912C0250912D02113039F030
:10224000822B932B842395230E947007EECE842B40
:10225000952B822B932BF8CF822B932B20912C0242
:1022600030912D0282279327EFCF1F70DD2029F0B8
:10227000812F0E94A307802F15CF802F0E94E30992
:10228000812F0E947507D1CE802F92EF891699F188
:10229000981570F0E0EF8E16D1F0F1EF8F1691F0F7
:1022A000DD2009F45BC0B11072CE812F8F7127C081
:1022B00023EF821639F134EF8312F2CF80915B0263
:1022C00082FD2EC0812F8F71DD20D9F218C0DD2054
:1022D00069F084E08B1508F4A8CE1F7181E090E0CE
:1022E00002C0880F991F1A95E2F7B8CF95E09B15A9
:1022F00008F49BCEF2CF812F8F71D110C2CF0E94F4
:10230000A30793CE90E080E0DD2009F49DCF1F71FC
:1023100081E090E002C0880F991F1A95E2F794CFF0
:10232000DD2089F01F71812F0E94A30780915B023D
:1023300082FF07C0E8E01E9FC001112483608093E4
:10234000D701812FDCCF81E00E948707F1E0FB15E8
:1023500008F06BCE82E00E94870767CEBB2039F081
:10236000893309F4D1CE802F0E94F4095ECE812FEB
:102370008F7187CF85E0DE01119601900D928A95CD
:10238000E1F7F701228189819A8121115ACC0E94BB
:102390000707182F5ECC0631FCE71F0709F580916F
:1023A000F9018A7A91E009F490E09093860169E25C
:1023B000811165E386E691E00E94BF030E948E09C9
:1023C0005ECC06312CE7120709F079CD80918601A9
:1023D00069E2811165E386E691E00E949503EECF04
:1023E00003303CE7130709F459CD50F401159CE77D
:1023F000190709F446CD01301C4709F455CD5FCDCE
:102400000B35FCE71F0709F4A2CD0C352CE71207AA
:1024100009F44CCD0A351C4709F051CD81E04DCD72
:102420001F93CF93DF938091A401807F09F049C06F
:102430008091A101882309F444C08091D601D091F4
:10244000A50160919F017091A001A091A201B0919E
:10245000A301C62FC72316E0D81799F190E0109773
:1024600011F0CF3F19F401968770F6CF189F9001B5
:10247000199F300D1124F901EA55FE4F4181471390
:10248000F2CF40814613EFCF42814111ECCF43811F
:1024900054814A1B5B0B483C510528F78091A401ED
:1024A0008F7080618093A401F901E555FE4F808112
:1024B0008F70806180838FE991E00E940B0E0E94F3
:1024C000BC06DF91CF911F910895A1E1B0E0EBE64A
:1024D000F2E10C94FC1C8C0185E0F801DE011D96F4
:1024E00001900D928A95E1F7F801E2808FE9A82E1C
:1024F00081E0B82E6091A2017091A3016115710570
:1025000009F426C190919F014091A001892F842355
:102510008F3F09F41DC120813181C380D480F090A8
:10252000A101F601E61BF70BFF2009F4DCC0809146
:10253000A401582F507FE83CF10508F09FC05111CD
:102540006BC0FE2C431314C0921312C0E11010C0D4
:102550008F7080618093A401C5010E940B0E809151
:10256000A401F80185838F2D6196EAE00C94181D73
:10257000C114D10429F0822F83238F3F09F003C1B6
:1025800080E0F82FF170DF2E80FF3CC08091D601F3
:102590004091A50156E0841315C02D873E878D8597
:1025A0009E850E94FA06292F22952F702230F0F086
:1025B000243018F59F70F1F0F8019581907FD1F4E7
:1025C000D12C1EC090E0589FF001599FF00D1124AE
:1025D000EA55FE4F6181361306C06081261303C0A1
:1025E0006281E6120FC001968770D5CF9F7011F0FF
:1025F000882331F3805E883018F3C8010E940B0EE7
:10260000FD2CB1CFEE2009F4AECF8091A401816002
:102610008093A401F12CA7CF431306C0921304C0EA
:10262000F801EE2009F479C0C8010E94B807882398
:1026300009F1EE20F9F08091A401803270F0209130
:102640009F013091A00138872F831986DB86CA86C7
:102650008C87CE0107960E940B0E86E0F801AFE949
:10266000B1E001900D928A95E1F70E941012FF24CB
:10267000F39479CFC8010E940B0EF9CF51110AC013
:102680008FE991E00E940B0E86E0F50111928A9588
:10269000E9F7C0CF43130FC092130DC0E1100BC078
:1026A000F8018583C8010E940B0E86E0F5011192A6
:1026B0008A95E9F758CFC8010E94B8078823D1F25C
:1026C000EE20C1F28091A401803238F220919F0166
:1026D0003091A0013A8329831B82DD82CC828E83D4
:1026E000CE010196B8CFE83CF105F8F6FE2CEE20BD
:1026F00009F243131FC092131DC08091A40180FDF5
:1027000010C0982F907F69F0F8018583903F31F0D9
:10271000982F907F905F8F70892B8583C8010E94CE
:102720000B0E86E0F801AFE9B1E001900D928A95B9
:10273000E1F719CFC8010E94B80781118ECF8091AF
:10274000A40181608093A401C8010E940B0E0BCFED
:10275000EE2009F48FCFC8010E94B807F82E882315
:1027600009F488CF86E0F801AFE9B1E001900D925D
:102770008A95E1F780919F019091A0010E94FA064D
:102780000E941012F0CE81E08E25FBCEA7E1B0E0D2
:10279000ECECF3E10C94031D4B8B5C8B6D8B7E8B0F
:1027A0008F8B61111092F8011A8A198A85E0FE0157
:1027B0007396DE011D9601900D928A95E1F786E0F1
:1027C000FE013D96DE01179601900D928A95E1F784
:1027D000CE0107960E946512811112C086E0FE01AB
:1027E0003796DE01119601900D928A95E1F78A8560
:1027F0009B85892B29F088859F8189238F3F81F5CF
:1028000016E08091D6019091A501891317C06796B3
:10281000E3E00C941F1D96E0929FD001939FB00DB2
:102820001124AA55BE4FFE01319601900D929A9542
:10283000E1F78093A5010E94BC06E2CF819FC00111
:1028400011248A559E4F0E946512882301F38091BE
:10285000D60190E00196877099278093D601D1CF59
:102860002091A50130E0C901019687709927409118
:10287000D6014817190679F60E94150B1092A5018A
:102880001092D60186E0EFE9F1E0DF011D928A9512
:10289000E9F7B6CFA4E0B0E0E0E5F4E10C94021D66
:1028A00040911702509118026091190270911A021A
:1028B0002FB7F8948091560290915702A091580238
:1028C000B09159022FBF841B950BA60BB70B11E0DB
:1028D00084369105A105B10590F10E945A0988231B
:1028E00099F10E947D036E5F7F4F8F4F9F4F6983E9
:1028F0007A838B839C838091110190911201825F76
:102900009D4F4091100150E04530510510F044E0DA
:1029100050E0BE016F5F7F4F0E94A81D82E090E0F3
:102920000E947E1C182F882351F00E947D03609323
:102930001702709318028093190290931A02812F44
:102940002496E4E00C941E1D0E947D0300911C025D
:1029500010911D0220911E0230911F02600F711F05
:10296000821F931FC0CFEF92FF921F93CF93DF93ED
:1029700000D000D00F92CDB7DEB77B0190E080E0B1
:102980000E947E1C182F882309F46DC0409103011A
:1029900050E04115510511F041E050E06091040113
:1029A00070910501625F7D4FCE0105960E94A81DC2
:1029B00040910A0250910B0260910C0270910D023D
:1029C0002FB7F8948091560290915702A091580227
:1029D000B09159022FBF841B950BA60BB70B843601
:1029E0009105A105B10538F48FE092E00E94E9015C
:1029F0009D818917C1F181E090E00E947E1C8823AF
:102A000009F458C040910B0150E04530510510F0D9
:102A100044E050E060910C0170910D01625F7D4FC8
:102A2000CE0101960E94A81D8FE092E00E94E9016C
:102A30009D8189133FC00E947D0360930A027093B9
:102A40000B0280930C0290930D0289819A81AB81D5
:102A5000BC818093060290930702A0930802B09372
:102A6000090211E00EC080910F0290911002A09116
:102A70001102B091120289839A83AB83BC83111136
:102A8000E4CF8091060290910702A0910802B091D4
:102A90000902F70180839183A283B383812F0F9072
:102AA0000F900F900F900F90DF91CF911F91FF909B
:102AB000EF90089510E0E5CFACE0B0E0E2E6F5E19C
:102AC0000C94F91C8E010F5F1F4F88E0D8011D92F6
:102AD0008A95E9F789E5C82E81E0D82EF12CE12C02
:102AE000AA24A394B12C23E6822E21E0922EF60193
:102AF00081916F018F3F09F442C0F894E82FE2956D
:102B0000EF70F0E021A18F70A50102C0440F551FA6
:102B10008A95E2F7CA01922F982B91A392A18095F2
:102B2000892382A3789400C0EDE5F1E0712C31E0B7
:102B300021912F3F09F46BC0A22FA295AF70B0E096
:102B400090968C9190E02F7002C0959587952A956C
:102B5000E2F780FD5CC0832F782A330F8E169F0624
:102B600039F7F601319780818F3F11F00E94A90457
:102B700050EA5A95F1F7F801EE0DFF1D70828FEFC4
:102B8000E81AF80AA4E0EA16F10409F0B0CF48E028
:102B900050E0B80180E292E00E949B1D009741F056
:102BA00028E0F801A0E2B2E001900D922A95E1F749
:102BB00000912902892B69F181E08093FD010E9437
:102BC00089039093FC018093FB018091FB0190911C
:102BD000FC010E946E03059700F110E0005D1D4F9F
:102BE00044E050E060E272E0C8010E949B1DB12CFD
:102BF000892B51F084E0E0E2F2E0D80101900D92DF
:102C00008A95E1F7BB24B3941092FD0107C080E0E0
:102C1000A3CF8091FD018111D8CFB12C0E945A0918
:102C2000A82EE0912902882309F470C019861A861B
:102C30001B861C860E2F10E0005D1D4F80911B022D
:102C40008A3078F543EB54E1BE01675F7F4FC801DE
:102C50000E942709882309F448C04AE454E1BE01D0
:102C6000675F7F4FC8010E9427098823F1F1109206
:102C70001B028091280290E044E050E0BE01675FB3
:102C80007F4F805D9D4F0E949B1D21E02093040299
:102C9000892BE9F4A12C8A2D8B292C96EDE00C943C
:102CA000151D8091FE019091FF010E946E03843FEB
:102CB000914040F680910402882361F3FE01399629
:102CC00084E0DF011D928A95E9F710920402E091F9
:102CD0002802F0E0E05DFD4F89859A85AB85BC85D3
:102CE00080839183A283B383D6CF80911B028F3FD1
:102CF00031F08F5F80931B028A3008F4BACF0E94B4
:102D000089039093FF018093FE01D4CFF0E0E05D52
:102D1000FD4F84E0AFE0B2E001900D928A95E1F7BB
:102D20008FE092E00E94E90180930E02C0901302AE
:102D3000D0901402E0901502F090160280910002EB
:102D400090910102A0910202B0910302C816D90627
:102D5000EA06FB0609F49FCFC0920002D09201025E
:102D6000E0920202F09203020E945A09811193CF6D
:102D70000E947D03C61AD70AE80AF90AC0921C020B
:102D8000D0921D02E0921E02F0921F0284CF1F9289
:102D90000F920FB60F9211242F933F934F935F938F
:102DA0006F937F938F939F93AF93BF93CF93DF9353
:102DB000EF93FF93D091E900DF708091EC00C82F72
:102DC000C17080FDC0E81092E9008091F000877F1B
:102DD0008093F00078940E94440B1092E900809157
:102DE000F00088608093F000CD2BCF70C093E90095
:102DF000FF91EF91DF91CF91BF91AF919F918F9113
:102E00007F916F915F914F913F912F910F900FBEE6
:102E10000F901F9018951F920F920FB60F921124CA
:102E20002F933F934F935F936F937F938F939F93D2
:102E3000AF93BF93EF93FF938091E10082FF09C0AE
:102E40008091E20082FF05C08091E1008B7F80933A
:102E5000E1008091DA0080FF24C08091D80080FFDB
:102E600020C08091DA008E7F8093DA008091D900B3
:102E700080FF9DC080E189BD82E189BD09B400FE6B
:102E8000FDCF81E08093810280915C02811109C0B5
:102E90000E9400020E94A1028091E200846080935F
:102EA000E2008091E10080FF17C08091E20080FF86
:102EB00013C08091E2008E7F8093E2008091E20057
:102EC00080618093E2008091D80080628093D80076
:102ED00019BC85E0809381028091E10084FF2BC0C2
:102EE0008091E20084FF27C080E189BD82E189BD35
:102EF00089B5982F917080FFFBCF8091D8008F7D8E
:102F00008093D8008091E1008F7E8093E1008091D2
:102F1000E2008F7E8093E2008091E20081608093E6
:102F2000E20080918202882309F447C084E0809304
:102F30008102809181028091E10083FF27C080910E
:102F4000E20083FF23C08091E100877F8093E1004E
:102F500082E080938102109282028091E1008E7F54
:102F60008093E1008091E2008E7F8093E200809167
:102F7000E20080618093E20042E060E080E00E9435
:102F80006F028091F00088608093F000FF91EF91D4
:102F9000BF91AF919F918F917F916F915F914F9171
:102FA0003F912F910F900FBE0F901F90189519BC55
:102FB0001092810210925C0274CF8091E30087FD31
:102FC00093E090938102B5CF78941F921FB61F9221
:102FD00011248F939F93AF93BF938091560290914A
:102FE0005702A0915802B09159020196A11DB11D3E
:102FF0008093560290935702A0935802B0935902BF
:10300000BF91AF919F918F911F901FBE1F901895F8
:103010001F921FB61F9211248F939F93AF93BF935C
:1030200080915502811113C08091560290915702F0
:10303000A0915802B09159024196A11DB11D8093F3
:10304000560290935702A0935802B0935902BF9131
:10305000AF919F918F911F901FBE1F901895CDB774
:10306000DEB760970FB6F894DEBF0FBECDBF85B751
:10307000806885BF85B7806885BF84B7877F84BF38
:103080000FB6F894A89580916000886180936000E5
:10309000109260000FBE80E890E00FB6F894809325
:1030A0006100909361000FBE87EA94E09093650100
:1030B000809364010E9400020E94A1028091E200BC
:1030C00084608093E2007894809181028823A1F04B
:1030D0001091E9001F709091EC00892F817090FD94
:1030E00080E8182B1092E9008091E80083FD0E948F
:1030F000440B1F701093E90082E084BD93E095BDFE
:103100009AEF97BD80936E0010921C0210921D02E0
:1031100010921E0210921F020E945A0980931801F9
:103120000E945A0981110E94921B8091180180917E
:10313000180194E0811190E09093290284E0891BAA
:103140008093280284E90E94A90486E60E94A904CB
:1031500087E90E94A90486EC0E94A9040DE511E00C
:1031600043E6E42E41E0F42ED8018D918D018F3F8E
:1031700011F00E94A904E016F106B1F788E0E0E33F
:10318000F2E0DF01282F1D922A95E9F7E0E2F2E054
:10319000DF011D928A95E9F790E080E00E94611DB1
:1031A000873E9E4F09F45EC067EE7EEF90E080E0C0
:1031B0000E94851D60E082E090E00E94671D60E053
:1031C00083E090E00E94671D10922B0210922A0269
:1031D00060E074E184E090E00E94851D60E086E09C
:1031E00090E00E94671D6FEF87E090E00E94671DEE
:1031F00040E050E0BA0188E090E00E94791D60E074
:103200008DE090E00E94671D40E050E0BA0188E147
:1032100090E00E94791D60E087E190E00E94671DC8
:1032200040E050E0BA018CE190E00E94791D70E02E
:1032300060E080E290E00E94851D40E050E0BA012D
:1032400088E190E00E94791D40E050E0BA018FE0F3
:1032500090E00E94791D40E050E0BA0183E190E0E7
:103260000E94791D82E090E00E94591D80933802EF
:1032700084E090E00E94611D90935B0280935A026B
:103280000E945C15EFE3FCE93197F1F700C0000004
:103290000E945C150E945A09E4E08111E0E0F0E030
:1032A000E05DFD4F808181FF08C06FEF7FEF90E010
:1032B00080E00E94851D0E945D0383E090E00E94F3
:1032C000591D90E00E94B3070E945A09811102C063
:1032D0000E94951B89E191E09093520280935102E4
:1032E00028E1C22ED12C38E3A32E32E0B32E91E494
:1032F000892E92E0992E8091810200E112E18530C1
:1033000009F47EC00E945C1509E312E080E3E82E18
:1033100082E0F82ED701F80191918D918E169F06CB
:1033200009F478C09817C1F30E945A09282E712C0D
:10333000D7016D907D01F80131908F01361429F18C
:10334000512C442443943624832D8421B1F022202F
:10335000A1F05C867D8691E0842D862109F490E0C1
:103360009E870E9489038160782F988B8F874C8578
:103370005D856E8588890E94C6135394440CF6E0DF
:103380005F12E2CFF80131976082739428E07212E5
:10339000CFCF0E947D035EC080918102843011F105
:1033A00010925502F0E40FB6F894A895C092600010
:1033B0000FBEF093600083B7817F846083BF83B7C3
:1033C000816083BF7894889583B78E7F83BF0FB663
:1033D000F894A895809160008861809360001092B5
:1033E00060000FBE80918002882351F00E945C151E
:1033F000E0E3F2E0819181111BC1AE16BF06D1F767
:1034000080918102853009F4C7CF0E94150B0E947C
:103410007D0978CF981388CF0E9489038C01809111
:103420002E0290912F0208171907A1F08FEF8F83BA
:10343000888719860E9489038160782F9B878A87F5
:103440004F81588569858B850E94C61310932F0282
:1034500000932E020E945A0986E0E9E4F2E0DE01C0
:10346000119601900D928A95E1F710924B021092FD
:103470004C0210924D0210924E028B819C81892B3E
:1034800009F44AC080914702909148020E946E035D
:103490009C0190914202992309F4E5C02531310540
:1034A000D8F19F3F19F09F5F909342021B81112337
:1034B00059F00E9487049FEF11160CF491E0899F48
:1034C000802D112480934B021C81112359F00E94FE
:1034D00087049FEF11160CF491E0899F802D112431
:1034E00080934C0230914B023323B1F020914C0277
:1034F000222391F045EB3403C0011124992309F4F0
:1035000087C090934B0245EB240390011124332391
:1035100009F482C030934C028D819E81892B09F47D
:1035200049C080914502909146020E946E039C0121
:1035300090914302992309F491C021353105D0F1CE
:103540009F3F19F09F5F909343021D81112359F013
:103550000E9465049FEF11160CF491E0899F802D65
:10356000112480934D021E81112359F00E9465049D
:103570009FEF11160CF491E0899F802D1124809308
:103580004E0230914D023323A9F020914E022223A6
:1035900089F045EB3403C0011124992309F440C09C
:1035A00090934D0245EB2403900111243323E1F164
:1035B00030934E0246E050E0BE016F5F7F4F89E4DA
:1035C00092E00E949B1D892B61F480914B029091A7
:1035D0004C02892B90914D02892B90914E02892BA0
:1035E00011F00E943E0486E0FE013196A9E4B2E0AB
:1035F00001900D928A95E1F70E947D099091410218
:10360000891709F478CE809341020E947D036FCE22
:1036100081E080934B0277CF81E080934C027CCF96
:1036200081E080934D02BECF81E080934E02C2CFF5
:1036300009BD19BD09B400FEFDCF8091D8008F7D72
:103640008093D8008091E00082608093E0008091B8
:10365000E00081FDFCCF0E94150BD2CE2B3031054E
:1036600008F070CFA7CF2B30310508F01CCF54CF16
:103670008EE14A9B02C08150E1F74A9BFECF08953C
:103680005A9880E28A95F1F75A9A0895FC013BE036
:103690003A95F1F798E020E080E031E040E14A958A
:1036A000F1F7880F4A9B02C08160232742E04A95C8
:1036B000F1F7000040E14A95F1F7915079F790E178
:1036C0009A95F1F799B132E03A95F1F7000040E1AF
:1036D0004A95F1F792FB992790F992272081920F52
:1036E00090830895A1E0B0E0E8E7FBE10C94001DB1
:1036F00019828C017C01E60EF11C0E151F0541F4A8
:1037000081E09981911180E02196E6E00C941C1DE6
:103710000E94381BCE0101960E94461BF80181933E
:103720008F01EBCF529A5A9A089552985A9AEA9A70
:10373000E9E6F0E080818F7C808308956150770B0B
:1037400091E001C0990F6A95EAF720E031E091110C
:1037500008C0222391F05A9A80E28A95F1F75A988C
:103760000895492F482339F05A9A232740E24A9571
:10377000F1F79695ECCF5A98F9CF5A98EDCFFF9282
:103780000F931F93CF93DF93EC018C01060F111D54
:10379000C017D10729F4CDB7DEB7E5E00C941D1DA5
:1037A000F9900E94401B68E08F2D0E949E1BF0CF75
:1037B0001F920F920FB60F9211240F931F932F9306
:1037C0003F934F935F936F937F938F939F93AF93A9
:1037D000BF93EF93FF93CF93DF930F92CDB7DEB7F5
:1037E00019820E94381BCE0101960E94461B082FA9
:1037F000069506950695282F22952570902F957091
:10380000290F922F937026952695920F98279770DF
:103810008981982B09F05CC0043008F059C080E120
:103820008A95F1F75A9A529A82E08A95F1F700C088
:103830005A9888E0089F80011124D801A050BF4FFA
:103840001696ED91FC9117973097A9F0609157016A
:103850007091580114962D913C911597260F371FA2
:1038600011968D919C911297680F791F13964C9128
:1038700013978C910995F801E050FF4F63816623FF
:1038800051F0209157013091580184819581820F28
:10389000931F0E94BF1B0E94401B80E18A95F1F795
:1038A0005A9852985A9A80E18A95F1F7F801E050B7
:1038B000FF4F6081662351F02091570130915801EC
:1038C00081819281820F931F0E94721B0E94381B7C
:1038D0000F90DF91CF91FF91EF91BF91AF919F91A9
:1038E0008F917F916F915F914F913F912F911F9198
:1038F0000F910F900FBE0F901F9018950F931F936D
:10390000CF93DF93EC0104970CF04CC0F894529ADB
:103910005A9885E08A95F1F700009C2F969595704E
:103920008C2F8570980F892F83709695969523E03C
:10393000CC0FDD1F2A95E1F7980F8E01092B0E940D
:10394000401B00C068E0802F0E949E1B80E18A958A
:10395000F1F752985A9A4A9B1EC087E090E04A9924
:103960001CC0FE01E050FF4F63816623F9F02091F7
:1039700057013091580184819581820F931F0E94D5
:10398000721B811113C0529A5A9A7894DF91CF9189
:103990001F910F91089500C0DECF019729F4529A2C
:1039A0005A9A789480E0F2CF00C0D9CF0E94381B99
:1039B00080E28A95F1F75A98529A80E18A95F1F758
:1039C000C050DF4F6881662351F02091570130913C
:1039D000580189819A81820F931F0E94BF1B0E9408
:1039E000401B789481E0D2CF2F923F924F925F920A
:1039F0006F927F928F929F92AF92BF92CF92DF92FF
:103A0000EF92FF920F931F93CF93DF93CDB7DEB763
:103A1000CA1BDB0B0FB6F894DEBF0FBECDBF0994F7
:103A20002A88398848885F846E847D848C849B844E
:103A3000AA84B984C884DF80EE80FD800C811B815C
:103A4000AA81B981CE0FD11D0FB6F894DEBF0FBE8B
:103A5000CDBFED01089597FB072E16F4009407D013
:103A600077FD09D00E94451D07FC05D03EF49095D6
:103A700081959F4F0895709561957F4F0895EE0F42
:103A8000FF1F0590F491E02D0994AA1BBB1B51E187
:103A900007C0AA1FBB1FA617B70710F0A61BB70BBE
:103AA000881F991F5A95A9F780959095BC01CD0163
:103AB0000895F999FECF92BD81BDF89A992780B5F6
:103AC0000895A8E1B0E042E050E00C948D1D262F4F
:103AD000F999FECF92BD81BDF89A019700B4021604
:103AE00039F01FBA20BD0FB6F894FA9AF99A0FBEB2
:103AF00008950396272F0E94681D0E94671D252F99
:103B00000E94681D242F0C94681D0196272F0E9487
:103B1000681D0C94671DDC01CB01FC01F999FECFF7
:103B200006C0F2BDE1BDF89A319600B40D92415045
:103B30005040B8F70895FB01DC0104C08D9101905D
:103B4000801921F441505040C8F7881B990B089503
:103B5000FB01DC0102C001900D9241505040D8F7AA
:103B60000895F894FFCF230C4B0CE30D4B0CE30DA1
:103B70007E0C9F0CE30D9C0DA90D530E570E390EB4
:103B80004F0E5B0E5F0E630EBE0E330FC60E900E11
:103B9000940ECA0E980ECE0EDA0EA40E2C0FA80E9E
:103BA000DE0EAC0EE20E0A0FB00EE60E110FB60ED0
:103BB000EC0EF40E9C0ED20EA00ED60EBA0EF00E27
:103BC000000F1A0F2A0F8A0EC20E3A0FAE0FAE0F59
:103BD000E70FE70F8E10A81015101510AD10351156
:043BE0004411441137
:103BE40000000001000000000000000401000000CB
:103BF4000405000000000000015A030309FC08F555
:103C04000801818283E200E900EA00B500B600B74A
:103C140000CD008301CC008A01920194012102238A
:103C24000224022502260227022A02B300B4006FEE
:103C34000070009F01CB010E02946697C6F4F5F65E
:043C4400F731330021
:00000001FF
