:100000000C94B7010C94FE010C94FE010C94310C7D
:100010000C94FE010C94FE010C94FE010C94FE0164
:100020000C94FE010C94FE010C94911D0C94631E23
:100030000C94E7180C94FE010C94FE010C94FE0144
:100040000C94FE010C94FE010C94FE010C94FE0134
:100050000C94FE010C9440190C94FE010C94FE01CA
:100060000C94FE010C94FE010C94FE010C94FE0114
:100070000C94FE010C94FE010C94FE010C94FE0104
:100080000C94FE010C94FE010C94FE010C94FE01F4
:100090000C94FE010C94FE010C94FE010C94FE01E4
:1000A0000C94FE010C94FE010C94FE01870F870F47
:1000B000B90FB90F1A1106101A111A111110AA103E
:1000C000BB10BB10B211B211C411C411BB11C411C9
:1000D000C411C411B211B211C011C411C411C011A4
:1000E000D01EF71EEF1FF71EEF1F431F661FEF1FE7
:1000F000BD1FCC1F290014001A00080015001700AE
:100100002B0004001600070009000A00E1001D0092
:100110001B00060019000500000000000000E200BE
:10012000E00002514C00130012000C0018001C00EB
:10013000340033000F000E000D000B00E500380006
:1001400037003600100011000000000000002A00F7
:100150002C00015129001E021F022F023002310221
:10016000E00020022102260227022402E1002202EE
:1001700023022F0030002502000000000000E300F1
:10018000E00000004C002E002D00520065003500FC
:100190004A0028004F005100500057004D00380021
:1001A00037003600310056000000000000001350F8
:1001B0000000000029001E001F0020002100220076
:1001C0003A003B003C003D003E003F004000410043
:1001D0004200430044004500000000000000E3002E
:1001E000E00001004C002700260025002400230029
:1001F00000000000000000000000000000000000FF
:1002000037003600000000000000000000002A0057
:100210002C000000290014001A0008001500170027
:100220002B0004001600070009000A00E1001D0071
:100230001B00060019000500000000000000E0009F
:100240002C0000004C00130012000C0018001C00D1
:10025000340033000F000E000D000B00E5003800E5
:100260003700360010001100000000000000000000
:10027000000010500C0343006F0072006E00650018
:100280000000100366006F006F00730074006100CF
:100290006E0000000403090409023B00020100A0F3
:1002A000FA09040000010301010009211101000104
:1002B0002240000705810308000A09040100010328
:1002C00000000009211101000122490007058203F5
:1002D00020000A120110010000000853460100012D
:1002E000000102000105010902A10185020901A125
:1002F00000050919012908150025019508750181D6
:10030000020501093009311581257F9502750881A3
:100310000609381581257F950175088106050C0AA7
:1003200038021581257F950175088106C0C0050139
:100330000906A101050719E029E71500250195081F
:10034000750181029501750881010507190029FFD2
:10035000150026FF0095067508810005081901297A
:1003600005950575019102950175039101C0112450
:100370001FBECFEFDAE0DEBFCDBF04B603FE27C05D
:100380008091180290911902A0911A02B0911B025B
:100390008730904BA740B04BD1F4109218021092C6
:1003A000190210921A0210921B0214BE84B7877FA2
:1003B00084BF0FB6F894A8958091600088618093FF
:1003C0006000109260000FBEE0E0F8E3099511E0D4
:1003D000A0E0B1E0E4E4F1E402C005900D92A034A5
:1003E000B107D9F722E0A0E4B1E001C01D92A83125
:1003F000B207E1F70E94C91A0C94A0200C940000E7
:10040000CF93DF93A7E3B1E04BE351E061E070E00D
:100410008D91E82FE295EF70F0E021A18F70EB0154
:1004200002C0CC0FDD1F8A95E2F7CE019C2F90957C
:10043000922391A392A1892B82A34A175B0741F7CC
:10044000DF91CF91089508950C9423020C94230218
:10045000209A559A289A5D9A08955D9808955D9A14
:10046000089528980895289A08950E94F1030E94FB
:100470000002A1E3B1E041E050E08D91E82FE29568
:10048000EF70F0E021A18F70BA0102C0660F771FF4
:100490008A95E2F7CB01962F9095922391A392A192
:1004A000892B82A371E0A733B70739F70E9428028E
:1004B000EAE4F1E0A2E4B1E011921D9281E0E235BC
:1004C000F807D1F70E94D203809352010C949D0447
:1004D0008F929F92AF92BF92CF92DF92EF92FF9254
:1004E0000F931F93CF93DF9380910101811103C07C
:1004F000C4E0D0E002C0C0E0D0E0AE014E5B5E4F91
:100500007A0187E3C82E81E0D82E8A01912CAA2493
:10051000A394B12C25E0822EFBE3CF16F1E0DF0699
:1005200009F44CC0F60181916F01E82FE295EF705C
:10053000F0E021A18F70A50102C0440F551F8A95DC
:10054000E2F7CA01922F982B91A392A1809589235B
:1005500082A350EA5A95F1F7E1E3F1E020E040E0B0
:1005600050E03191A32FA295AF70B0E090968C919E
:1005700090E03F7002C0959587953A95E2F780FD2F
:1005800007C0C501042E01C0880F0A94EAF702C013
:1005900080E090E0282B4F5F5F4F4630510509F710
:1005A000F8018081821729F020838092000199242C
:1005B00093940E9400020F5F1F4FAECF8091000105
:1005C0008823B1F0815080930001811103C0C65B84
:1005D000DE4F07C08FE99FE00197F1F700C00000F0
:1005E00007C0F70191917F0199938F5F8430C9F71C
:1005F000892DDF91CF911F910F91FF90EF90DF90A8
:10060000CF90BF90AF909F908F900895CF93DF933E
:1006100020910101211103C0C0E0D0E002C0C4E07C
:10062000D0E00E940C04009729F00297B1F40E94D8
:10063000310213C00E943302C65BDE4F80915E011F
:1006400090915F01A0916001B091610188839983CD
:10065000AA83BB8380E090E002C081E090E0DF915C
:10066000CF9108950E94680290910101911103C0F9
:10067000E4E0F0E002C0E0E0F0E0E65BFE4F20E006
:1006800030E090E0D901A25ABE4F5C9141915413E1
:1006900091E04C932F5F3F4F2430310599F7209123
:1006A0005701920F9093570108951F93CF93DF93B3
:1006B00080915201882309F449C00E946802182FD2
:1006C00080910101811103C0C4E0D0E002C0C0E00C
:1006D000D0E0C65BDE4F44E050E0BE018AE591E029
:1006E0000E945120488159816A817B8140935A013F
:1006F00050935B0160935C0170935D010E9406035F
:10070000892BC9F00E942D02809153018F5F809345
:1007100053018630A0F080910101811103C0E0E017
:10072000F0E002C0E4E0F0E0E65BFE4F10821182F0
:100730001282138204C00E942F02109253010E9461
:10074000A504C1E0111122C0C0E020C00E94320304
:10075000C1E0811101C0C0E080910101811103C09D
:1007600080E090E002C084E090E0FC01E65BFE4F98
:1007700040915A0150915B0160915C0170915D0163
:1007800040835183628373830E94A5048C2FDF9181
:10079000CF911F910895E82FF0E0E65BFE4F808136
:1007A0000895089580915401811112C08091D8005C
:1007B00080618093D8008AE18A95F1F700C080912A
:1007C000D90080FD02C082E001C081E08093540125
:1007D00081E090915401913009F080E008950C94EB
:1007E000D2030E94EF03809301010E94D203882369
:1007F00019F00E94000402C00E9406047894089533
:1008000063E070E082E091E00C94DF0B63E070E065
:1008100082E091E00C94E80B0F931F93CF93DF934A
:100820008C0190911B0180911A01981761F082E070
:1008300090E00E94C10CEC01892B39F480911A01DF
:1008400080931B0102C0C0E0D0E0012B49F48091ED
:10085000550190915601892B19F480E090E002C077
:1008600081E090E00E94C10C892B49F480915701EE
:1008700080931A01109256011092550106C081E032
:1008800090E09093560180935501CE01DF91CF9176
:100890001F910F9108950C94240281E0089581E046
:1008A00008950C944F0408950C9453041F93CF9310
:1008B000DF9300D000D01F92CDB7DEB749835A83B3
:1008C0006B8330918D0189819A81311114C0662327
:1008D00059F0222349F00E947016182F682F898141
:1008E0009A810E94171603C00E944316182F69812F
:1008F0007A81812F04C00E94701669817A810F90DD
:100900000F900F900F900F90DF91CF911F910C944B
:100910000405FC01262F408151816281738184810D
:100920000C945604CF93DF93EC0160E00E9489049D
:10093000BE01DF91CF910C9454040E94971781114E
:1009400002C00E943E180C944B040C942602089599
:100950000E94A0110E94A7042FEF84E39CE0215085
:1009600080409040E1F700C000000C9466190F939E
:100970001F93CF93DF93EC0161E00E9489048C0107
:10098000BE010E945104882349F1BE01C8010E94A2
:10099000D109882319F1BE01C8010E94230A8823C6
:1009A000E9F0BE01C8010E944E0B8823B9F08A818C
:1009B000882369F001158CE5180731F00F3D1C45BF
:1009C00031F40E943E180AC00E94A80407C0CE015C
:1009D000DF91CF911F910F910C944D0480E0DF9136
:1009E000CF911F910F91089508950C94F40481E024
:1009F00008950C94F704CF93C82F0E94F5048C2F10
:100A00000E94F904CF91089520E3829FC001112430
:100A1000FC0126E0729FE00DF11D1124E60FF11D8F
:100A2000EE0FFF1FEC50FF4F859194910895CF93E7
:100A3000DF930E9404050E94F405EC0181159245A4
:100A400080F5C11581E5D80708F095C0CF3FD105E5
:100A500009F0B8F4CD3ED10508F06CC0C53AD10517
:100A600048F4C430D10508F0BBC0C130D10509F449
:100A7000B7C0B4C0CE01805E9109089708F4B0C039
:100A8000ADC0C11590E5D90708F059C0C11520E4E3
:100A9000D20708F051C0C11580E2D80708F4A0C001
:100AA0009DC0C11596E5D90718F5C11525E5D207F2
:100AB00008F07AC0C11584E5D80708F070C09E011F
:100AC000237033278C2F86958695C115D34508F062
:100AD00057C0C1E0D0E002C0CC0FDD1F2A95E2F77D
:100AE00020E2829FC0011124C82BD92BDC6878C07A
:100AF000C1152AE5D20778F4C11589E5D80708F0B1
:100B00005DC0C11598E5D90708F468C0DC2FCC2773
:100B1000C06FD06A65C0CE0190568115904208F032
:100B20005DC08D2F8F710E948806DD27D0628F7186
:100B3000D82B56C0D06554C0DF70D06A51C0CE01EA
:100B400074E0969587957A95E1F783709C2F937062
:100B500021E030E002C0220F331F9A95E2F73C6893
:100B6000382BCF70C695C69580E2C89FE00111244E
:100B7000C22BD32B35C0DC2FCC27C16FD06A30C03D
:100B8000C1E0D0E002C0CC0FDD1F2A95E2F720E2E1
:100B9000829FC0011124C82BD92BDA6821C0DC2F19
:100BA000CC27C46FD06A1CC08C2F0E9488068F711E
:100BB000C82FD0E0DC2FCC27D06212C08C2F8F70D2
:100BC0000E94880694E0D695C7959A95E1F7CF7074
:100BD000D0E0DC2FCC27D069C82B02C0C0E0D0E029
:100BE000CE01DF91CF9108958238910569F1B0F47B
:100BF0008133910509F46DC048F48932910509F4F7
:100C000063C08A32910509F469C00895853391055E
:100C100009F455C089339105B9F00895833E9105D3
:100C200069F138F4803E9105B1F0823E910509F1F9
:100C30000895863E9105A9F1873E9105B9F1843E5C
:100C4000910509F064C023C02091090220FD4FC026
:100C500021FD4DC008958091090280FD44C080911E
:100C60000A0280FF44C08091090284FD42C083EEE5
:100C70004DC08091090282FF38C0F5CF80910902F2
:100C800082FD33C080910A0280FD31C0ECCF80919B
:100C90000A0281FF32C08091090284FD2AC087EEDA
:100CA00035C08091090283FF26C0F5CF80910902EB
:100CB00083FD21C080910A0281FD1FC0ECCF80918D
:100CC000090285FD1CC01DC08091090285FD19C067
:100CD00016C08091090286FD16C017C080910902D6
:100CE00086FD13C010C089E311C082EE0FC080EEF4
:100CF0000DC080E00BC086EE09C084EE07C089E21B
:100D000005C085E303C08AE201C081E390E0089555
:100D10009091090292FF0DC0282F2871283019F4F4
:100D2000877F846006C0282F2471243011F48B7FC4
:100D3000886093FF0DC0282F2871283119F4877E11
:100D4000846106C0282F2471243111F48B7E8861C0
:100D500020910A0220FF0DC0382F3871383019F465
:100D6000877F816006C0382F3171313011F48E7F5A
:100D7000886021FF0DC0282F2871283119F4877E43
:100D8000816106C0282F2171213111F48E7E886186
:100D900094FD877E08958091680180FF0BC060916B
:100DA000210185E0689FB0011124759567957595BF
:100DB00067952BC081FF09C06091210185E0689F84
:100DC000B00111247595679520C082FF07C060911E
:100DD000210185E0689FB001112417C0909167013F
:100DE0009923D1F060912001961788F72091210175
:100DF00085E0289F90011124929FA001939F500DA0
:100E0000112470E0CA010E9423206038710540F46B
:100E10006115710519F406C065E070E0862F08952C
:100E20008FE7089581E008958091680180FF08C0F0
:100E300060911D0170E0759567957595679521C066
:100E400081FF06C060911D0170E07595679519C01E
:100E500082FF04C060911D0170E010C09091660196
:100E6000992399F060911C019617A0F780911D01BC
:100E7000899FC001112470E00E9423206038710511
:100E800040F46115710519F406C061E070E0862F29
:100E900008958FE7089581E008958D3E21F40E9422
:100EA000CB06819504C08E3E29F40E94CB06809328
:100EB0006C0108958F3E21F40E94CB06819504C0F9
:100EC000803F29F40E94CB0680936B010895893FEF
:100ED00019F40E94140705C08A3F31F40E941407D8
:100EE000819580936D0108958B3F21F40E94140732
:100EF000819504C08C3F29F40E94140780936E01F1
:100F000008959FE0980F983078F421E030E0A9012F
:100F100002C0440F551F9A95E2F7CA0190916A01E9
:100F2000892B80936A0108958D3F21F48091680197
:100F300081600BC08E3F21F480916801826005C002
:100F40008F3F29F48091680184608093680108953F
:100F50008D3E39F490916C0197FF35C010926C0171
:100F600059C08E3E29F490916C011916BCF32BC028
:100F700090916B018F3E29F497FF25C010926B0171
:100F800049C0803F19F41916CCF31DC090916D0132
:100F9000893F29F41916BCF410926D013BC08A3FB9
:100FA00019F497FF10C0F8CF8B3F39F490916E0180
:100FB00097FF09C010926E012DC08C3F21F49091D3
:100FC0006E011916BCF39FE0980F983080F421E071
:100FD00030E0A90102C0440F551F9A95E2F7CA01FB
:100FE000809590916A01892380936A0113C08D3F97
:100FF00021F4809168018E7F0BC08E3F21F4809197
:1010000068018D7F05C08F3F29F4809168018B7F37
:101010008093680180916B01811106C080916C0101
:10102000811102C01092670180916D01811106C08B
:1010300080916E01811102C01092660108950E9494
:10104000191920916B01211104C020916C012223F8
:1010500021F0909365018093640120916D0121112D
:1010600004C020916E01222321F0909363018093AC
:10107000620189E691E00C94600DEF92FF920F936C
:101080001F93CF93DF9300D000D000D0CDB7DEB751
:1010900086E0E9E6F1E0DE01119601900D928A9575
:1010A000E1F7E0906B01F0906C0100916D011091FF
:1010B0006E0110926B0110926C0110926D011092F2
:1010C0006E01E11003C0FF2009F45DC0809164014E
:1010D000909165010E943119AC01909167019923AB
:1010E00039F02091220130E02417350758F04BC029
:1010F000209123018AE0289F9001112424173507AD
:1011000018F041C09F3F19F09F5F90936701EE2058
:1011100061F00E94CB061E1414F09FEF01C091E015
:10112000989F902D112490936B01FF2061F00E94F5
:10113000CB061F1414F09FEF01C091E0989F902DF3
:10114000112490936C0130916B013323E1F02091D5
:101150006C012223C1F045EB3403C0011124992313
:1011600019F090936B0103C081E080936B0135EB24
:101170002303C0011124992319F090936C0103C03B
:1011800081E080936C01011103C0112309F45DC05B
:1011900080916201909163010E943119AC0190919C
:1011A0006601992339F020911E0130E0241735079C
:1011B00058F04BC020911F018AE0289F9001112414
:1011C0002417350718F041C09F3F19F09F5F909397
:1011D0006601002361F00E941407101614F09FEFBF
:1011E00001C091E0989F902D112490936D011123DF
:1011F00061F00E941407111614F09FEF01C091E0F6
:10120000989F902D112490936E0130916D0133239E
:10121000E1F020916E012223C1F045EB3403C001BF
:101220001124992319F090936D0103C081E08093FC
:101230006D0135EB2303C0011124992319F090931C
:101240006E0103C081E080936E0180916B0181117A
:101250000BC080916C01811107C080916D018111DB
:1012600003C080916E0181110E941F08EB82FC82F5
:101270000D831E8386E0FE013196A9E6B1E0019060
:101280000D928A95E1F726960FB6F894DEBF0FBE51
:10129000CDBFDF91CF911F910F91FF90EF900895F7
:1012A000E9E6F1E086E0DF011D928A95E9F7109208
:1012B0006701109266011092680108950F931F93C1
:1012C000CF93DF93C42FD22FFC0182818823C9F0F2
:1012D000409371010E9419199093700180936F01DE
:1012E00080E28C0F883008F057C0C77081E001C0E1
:1012F000880FCA95EAF7DF91CF911F910F910C9457
:10130000420F80917101481330C080916F0190911C
:1013100070010E943119883C910538F510E21D0FCB
:10132000CD17B9F080E28C0F883040F4C77081E0AF
:1013300001C0880FCA95EAF70E94490F183028F5B6
:1013400081E09D2F977001C0880F9A95EAF70E945F
:10135000420F802F0E94390F1830F0F4D77081E0CF
:1013600001C0880FDA95EAF70AC080E28C0F883056
:1013700098F4C77081E001C0880FCA95EAF7DF9141
:10138000CF911F910F910C94490F802FDF91CF9136
:101390001F910F910C94390FDF91CF911F910F91F5
:1013A00008950F939C01CB01243F4CE5340731F1A4
:1013B00088F4293DFCE53F07D9F02A3D4CE5340788
:1013C00079F1283D3C45A9F506E221EE41EE68EDB4
:1013D0007CE52BC0263FFCE53F07E1F0A8F0273F66
:1013E0003C4539F507E225EE46EE67EF7CE51DC08A
:1013F00007E225EE45EE69ED7CE517C006E221EE39
:1014000040EE64EF7CE511C007E225EE44EE65EFA7
:101410007CE50BC006E221EE42EE66EF7CE505C0FE
:1014200008E221E045EE6AED7CE50E945E0980E07D
:1014300008C0FC018281882319F01092710101C05B
:1014400081E00F910895CF93DF93EC01FB0182813E
:10145000882309F41FC1C230FCE5DF0708F41BC173
:10146000C6319CE5D90738F09E012B5F3C452930F9
:10147000310508F010C10E94AA1790930A028093C8
:101480000902C031ECE5DE0709F4C3C008F041C031
:10149000C8308CE5D80709F49AC0F0F4C430ECE504
:1014A000DE0709F487C068F4C2308CE5D80709F478
:1014B00077C0C330DC4509F0E3C080910902826047
:1014C00076C0C630ECE5DE0709F46EC008F07BC0DC
:1014D0008091090288606BC0CC308CE5D80709F494
:1014E00085C068F4CA30ECE5DE0709F474C008F082
:1014F00079C00E94A01180910902806858C0CE3046
:101500008CE5D80709F476C008F07FC08091090205
:101510008BC0CC3FECE5DE0709F44FC018F5C331B2
:101520008CE5D80709F47DC078F4C131ECE5DE071D
:1015300009F473C0C231DC4509F0A2C00E94A011B9
:10154000809109028F7733C0C5318CE5D80709F443
:1015500072C008F486C0CB3FDC4509F091C0809191
:101560000A023EC0C115FDE5DF0709F45FC058F46B
:10157000CE3F9CE5D90709F444C008F43FC08091F0
:101580000A0282602DC0C230FDE5DF0709F475C094
:1015900008F45DC0C330DD4509F072C080E06EC064
:1015A00080910902816003C080910902806180936B
:1015B000090266C08091090211C080910A0282600E
:1015C00080930A025DC0809109028062F0CF809111
:1015D00009028064ECCF8091090288608460E7CFC3
:1015E0008160EECF809109028E7FE1CF8091090268
:1015F0008D7FDDCF80910902877FD9CF80910A024C
:1016000018C080910A028D7FDBCF809109028F7E06
:10161000CECF809109028F7DCACF809109028F7B46
:10162000C6CF80910902877F8B7FC1CF80910A024C
:101630008D7F8E7FC5CF8091090282FB222720F902
:1016400091E0922790FB82F990FB83F9B0CF8091D3
:101650000A02982F909591708E7F892B90FB81F9CB
:10166000AFCF0E94A0118091090287FB222720F9A9
:1016700091E0922790FB87F99ACF81E00E94401871
:101680008091090290910A020E94BB170E94A0114A
:1016900080E001C081E0DF91CF910895CF93DF9387
:1016A00086319C4541F5EB010E94F116982F8A8105
:1016B0002091240130912501882379F09A7A81E0E4
:1016C00009F480E080937201911102C069E201C0C7
:1016D00065E3C9010E9487180AC0809172018111D7
:1016E00002C069E201C065E3C9010E9489180E9435
:1016F000321780E001C081E0DF91CF9108958EE143
:101700004A9B02C08150E1F74A9BFECF08955A9848
:1017100080E28A95F1F75A9A0895FC012AE02A9509
:10172000F1F790E020E080E031E0261779F040E129
:101730004A95F1F7880F4A9B02C08160932700C049
:10174000000040E14A95F1F72F5FEFCF20E12A95A5
:10175000F1F729B100C0000030E13A95F1F722FB22
:10176000222720F992272081920F90830895EF92EB
:10177000FF920F931F93CF93DF931F92CDB7DEB7E6
:1017800019828C017C01E60EF11C0E151F0559F023
:101790000E947F0B68E0CE0101960E948D0BF8013C
:1017A00081938F01F2CF81E09981911180E00F90B8
:1017B000DF91CF911F910F91FF90EF90089590933B
:1017C00075018093740160937301529A5A9A089537
:1017D00090937501809374016093730152985A9AA3
:1017E000EA9AE9E6F0E080818F7C80830895615079
:1017F00091E001C0990F6A95EAF720E031E0992362
:1018000061F0492F482319F05A9A232701C05A98AA
:1018100040E24A95F1F79695F2CF222311F05A9AB9
:1018200001C05A9880E28A95F1F75A980895FF927C
:101830000F931F93CF93DF93EC018C01060F111DC3
:10184000C017D10741F0F9900E94870B68E08F2DF7
:101850000E94F70BF5CFDF91CF911F910F91FF9071
:1018600008951F920F920FB60F9211240F931F939A
:101870002F933F934F935F936F937F938F939F9398
:10188000AF93BF93EF93FF93CF93DF931F92CDB7A7
:10189000DEB719820E947F0B67E0CE0101960E949D
:1018A0008D0B382F369536953695932F96959570E6
:1018B000232F2570920F292F237096959695877068
:1018C000920F891348C08981811145C080917301AD
:1018D000831708F440C080E18A95F1F75A9A529A2A
:1018E000A2E0AA95F1F700C0009174011091750172
:1018F000B8E03B9F000D111D11245A98F801658135
:10190000662321F0868197810E94170C0E94870B25
:10191000F0E1FA95F1F75A9852985A9A80E18A952F
:10192000F1F7D80112966C911297662369F013961D
:101930008D919C9114970E94B70BD801ED91FC9169
:10194000811105C082E004C0D801ED91FC9188E0CE
:1019500080830E947F0B0F90DF91CF91FF91EF91D9
:10196000BF91AF919F918F917F916F915F914F91B7
:101970003F912F911F910F910F900FBE0F901F90CD
:1019800018950F931F93CF93DF932091730130E04D
:10199000281739070CF471C09C0193E0220F331F04
:1019A0009A95E1F7C0917401D0917501C20FD31FD0
:1019B000F894529A5A9845E04A95F1F70000982F0A
:1019C000969595708570890F982F9370869586955A
:1019D000890F8901082B0E94870B84E08A95F1F713
:1019E00000C067E0802F0E94F70B40E14A95F1F7B5
:1019F00052985A9A4A9902C000C0FCCF87E090E002
:101A00004A9B0EC0019751F4529A5A9AE881F98183
:101A100081E08083789481E090E031C000C0F0CF15
:101A20006D81662381F08E819F810E94B70B8111A9
:101A30000AC0529A5A9AE881F98182E080837894A8
:101A400082E090E01CC00E947F0B80E28A95F1F753
:101A50005A98529A40E14A95F1F76A81662321F03B
:101A60008B819C810E94170C0E94870BE881F98171
:101A70001082789480E090E002C084E090E0DF91F2
:101A8000CF911F910F91089590937B0180937A01DC
:101A90000895E0917A01F0917B01309721F0019057
:101AA000F081E02D099480E00895E0917A01F091B1
:101AB0007B01309721F00280F381E02D0994089595
:101AC000E0917A01F0917B01309739F022E0DC015E
:101AD0002C930480F581E02D0994089520917801DC
:101AE000309179012817390771F09093790180932B
:101AF0007801E0917A01F0917B01309721F0068026
:101B0000F781E02D099408952091760130917701B5
:101B10002817390771F09093770180937601E0914F
:101B20007A01F0917B01309721F00084F185E02D5E
:101B3000099408950E9425196093890170938A0180
:101B400080938B0190938C01609385017093860143
:101B50008093870190938801089585B7806885BF39
:101B600085B7806885BF089581E008950C94B40D11
:101B700008950C94B80D0C94B80D0C94BB0D0C94F6
:101B8000B80D0C94BF0D0C94B80D0E94AD0D85E9F5
:101B900097E10E9477190E94C30D0C94C10D0E9419
:101BA00010190E9435020E947C190C94BD0D9F9261
:101BB000AF92BF92CF92DF92EF92FF920F931F935B
:101BC000CF93DF93CDB7DEB72A970FB6F894DEBF79
:101BD0000FBECDBF0E94B90D0E94B80D0E945503E3
:101BE00081110E949A0D8DE7A82E81E0B82E00E0A9
:101BF00010E0902E802F0E94CB03D82EF501C190CB
:101C00005F01C826B1F40F5F1F4F0830110589F737
:101C10008FEF89838A831B820E9419198160782F34
:101C20009D838C8349815A816B818D810E94790EBD
:101C30002FC08091F90181FD0E94D103E12CFF2486
:101C4000F3948C2D8F21F1F00E94B60D882399F02A
:101C5000EE829F82DF2081E009F480E088870E9485
:101C600019198160782F9A8789874E815F816885ED
:101C70008A850E94790EF801E358FE4F8081F8268C
:101C8000F08206C0E394FF0CF6E0EF12DACFBBCF90
:101C90000E943D080E94490D90917C018917B9F07E
:101CA0000E94490D80937C012A960FB6F894DEBFFE
:101CB0000FBECDBFDF91CF911F910F91FF90EF909D
:101CC000DF90CF90BF90AF909F900C94FB042A962A
:101CD0000FB6F894DEBF0FBECDBFDF91CF911F913D
:101CE0000F91FF90EF90DF90CF90BF90AF909F90BB
:101CF0000895DF92EF92FF920F931F93CF93DF939C
:101D0000CDB7DEB72B970FB6F894DEBF0FBECDBFB1
:101D1000F42E052F162FE72ED82E61110E941117D1
:101D2000FE01319686E0DF011D928A95E9F77E2D4E
:101D30004F2D502F612F8D2D9E810E9459142B966F
:101D40000FB6F894DEBF0FBECDBFDF91CF911F91CC
:101D50000F91FF90EF90DF900895FC0180819181B9
:101D60000E94B2160895CF938823B1F1C82F8CEF4B
:101D70008C0F813AD0F46C2F809124019091250131
:101D80000E945118882349F06C2F80912401909172
:101D900025010E9489180E9432176C2F809124011E
:101DA000909125010E9487180CC080E28C0F88302A
:101DB00058F4C77081E001C0880FCA95EAF70E9405
:101DC000F416CF910C943217CD3E30F08C2F0E9438
:101DD0004D07CF910C941F08CF910895882389F166
:101DE0009CEF980F913A40F4682F809124019091D4
:101DF00025010E9489180DC090E2980F983058F480
:101E0000877091E001C0990F8A95EAF7892F0E94A7
:101E1000FA160C9432179BE5980F933020F480E06B
:101E200090E00C946E0D98E5980F973120F480E0C7
:101E300090E00C94840D8D3E20F00E94A8070C9435
:101E40001F0808951F93CF93DF93182FEB010E9473
:101E5000B30E209741F08FE99FE00197F1F700C0A2
:101E600000002197F6CF812FDF91CF911F910C9425
:101E7000EE0E893319F060E070E002C060E570E0BA
:101E80000C94220F882321F00E94F4160C94321730
:101E90000895882321F00E94FA160C9432170895B1
:101EA000CF92DF92EF92FF920F931F93CF93DF9326
:101EB0007C01D62FC72FFC010281158112951F705E
:101EC0000E94EA16882399F0002389F08C2F807FE6
:101ED000803421F080E28D0F883048F082E00E944B
:101EE0007C170E94EA1691E0D82ED92601C0D12C89
:101EF000CC2EC2948FE0C8228C2D90E08C309105BE
:101F000008F098C1FC01EA5AFF4F0C9437208C2F3F
:101F1000807FCF70882311F0C295C07F002399F095
:101F2000CC2309F473C180E28D0F883010F0D111F9
:101F300004C08C2F0E94F41603C08C2F0E9404173B
:101F40000E94321763C18D2F0E94EE0ECC2309F43C
:101F500071C180E28D0F883010F0D11104C08C2F38
:101F60000E94FA1603C08C2F0E940A170E94321793
:101F700061C18C2F807FCF70803211F0C295C07FFD
:101F8000DD2319F0D130C9F022C0002371F01123F4
:101F900041F0113031F40E9417178C2B0E941F174B
:101FA00049C10E9417178C2B1DC0112319F0113045
:101FB00009F440C10E94281725C0002321F01630E3
:101FC00008F038C10EC0153008F034C11BC0002322
:101FD00061F0112331F0F701858180FF17C18F7007
:101FE00085838C2F0E94420F25C1112359F0D933CC
:101FF00009F01DC1FFEF07EE13E0F1500040104063
:10200000E1F713C18C2F0E94490F14C18D2F0023BB
:1020100019F00E944D0702C00E94A8070E941F08E5
:1020200011C18C2F837009F047C0011107C12D2FFA
:10203000229526952770220F220F6D2F6F70862F05
:1020400090E0A0E0B0E0022E04C0880F991FAA1F04
:10205000BB1F0A94D2F7D4FF10C04FE050E060E0FD
:1020600070E004C0440F551F661F771F2A95D2F7F2
:10207000409550956095709503C040E050E0BA01DE
:10208000C695C695C3708A019B01082B192B2A2B74
:102090003B2BC901B801C23049F058F4C13019F0E6
:1020A0000E942D15CBC00E941B15C8C00E943F1571
:1020B000C5C00E941915C2C0002319F08C2F817071
:1020C00001C08695882309F4B9C02D2F2295269545
:1020D0002770220F220F6D2F6F70862F90E0A0E0E7
:1020E000B0E0022E04C0880F991FAA1FBB1F0A94DC
:1020F000D2F7D4FF10C04FE050E060E070E004C0C1
:10210000440F551F661F771F2A95D2F740955095AB
:102110006095709503C040E050E0BA01C695C69541
:10212000C3708A019B01082B192B2A2B3B2BC90159
:10213000B801C23049F058F4C13019F00E94F215CC
:102140007DC00E94E0157AC00E94041677C00E94EC
:10215000531574C0CF70002339F08C2F0E9479156D
:102160008D2F0E94420F6AC08D2F0E94490F8C2F25
:102170000E949A1563C0D23F01F128F4D03F41F08C
:10218000D13FA1F03FC0D33FF9F0D43F39F13AC07D
:10219000002341F0153008F04DC08C2F8F710E9444
:1021A000BF1548C0163008F045C0F7CF002339F0FE
:1021B0008C2F8F710E9479153DC00023C9F38C2F9D
:1021C0008F710E949A1536C0002329F08C2F8F71D1
:1021D0000E9464152FC00E945F152CC0002349F097
:1021E000CF718C2F0E94791563E08C2F0E946717A6
:1021F00021C081E00E947C171230E0F082E00E9452
:102200007C1718C0002331F0112391F28D2F0E940A
:10221000B30E10C0112399F2D93349F41FEF27EE02
:1022200033E0115020403040E1F700C000008D2F16
:102230000E94EE0E88EF8C0D843020F40E94490D30
:102240000E94FB04DD20C9F00E94E61680FD15C047
:10225000F70112820E94E0160E947915C7010E94C0
:102260005E110E94E016DF91CF911F910F91FF90B8
:10227000EF90DF90CF900C949A15DF91CF911F9142
:102280000F91FF90EF90DF90CF9008950F931F93E1
:10229000CF93DF93EC01688179818A810E94BD161A
:1022A0008C010E9416160E940715B801CE010E94EB
:1022B000500FDF91CF911F910F910895CF93DF932E
:1022C000EC01988189812B813C81232B31F08F3F58
:1022D00031F481E09F3F19F403C081E001C080E048
:1022E00080FD19C0CE010E94B70481110CC00E946C
:1022F000EA16882381F08A81882369F082E0DF91E1
:10230000CF910C947C17CE010E944611CE01DF9133
:10231000CF910C949204DF91CF9108950E941117F0
:102320000E9414170E9432170E9450090C941F0833
:1023300080912401909125010E948B180C948E119C
:102340000E9401170C949811E92FE295EF704E2F1F
:1023500050E0FA013297EE30F105B0F4EE59FF4F3C
:102360000C943720803F91F018F4883E68F40EC03A
:10237000843F51F40BC0883E48F0813F29F406C0E9
:1023800093FB882780F9089580E0089581E00895FF
:102390000E94B2160E94A4110895CF93DF9300D03B
:1023A00000D01F92CDB7DEB70F900F900F900F9017
:1023B0000F90DF91CF910895CF93DF9300D000D09D
:1023C00000D0CDB7DEB726960FB6F894DEBF0FBEAD
:1023D000CDBFDF91CF9108951F93CF93DF93C0912D
:1023E0008E0116E080918F01C81799F0D0E01C9FF4
:1023F000F0011D9FF00D1124E057FE4F40815181E7
:1024000062817381848195810E94DC112196C7705D
:10241000E9CFDF91CF911F9108954091C001509174
:10242000C1016091C2017091C3018091C40190917A
:10243000C5010C94DC110F931F93CF93DF93809110
:10244000C50182958F7009F05DC08091C20188231B
:1024500009F458C080918E0110918F016091C001E4
:102460007091C101C091C301D091C40191E06F3F4F
:1024700009F090E0292F06E0811709F443C0209766
:1024800021F07F3F21F030E003C031E001C0322F66
:1024900090E030FD34C0089FF001099FF00D112439
:1024A000DF01A057BE4F11963C911197371327C0FB
:1024B0003C91361324C012963C91129731111FC0E3
:1024C00013964D915C9114974C1B5D0B483C510544
:1024D000B0F48091C5018F7080618093C501EB5687
:1024E000FE4F80818F708061808380EC91E00E943C
:1024F0005E11DF91CF911F910F910C94EC11019619
:102500008770BACFDF91CF911F910F9108959F925D
:10251000AF92BF92CF92DF92EF92FF920F931F93F1
:10252000CF93DF93CDB7DEB761970FB6F894DEBFD8
:102530000FBECDBF8C0185E0F801DE011D96019034
:102540000D928A95E1F7F80140815181E2809091E6
:10255000C0016091C1012091C3013091C4012115D6
:10256000310531F06F3F31F481E09F3F19F403C032
:1025700081E001C080E0F82FF1709F2E80FD46C100
:10258000F801A380B48080ECC82E81E0D82EF090B2
:10259000C201F501E21BF30BFF2009F4DFC08091BB
:1025A000C501E83CF10508F09BC0282F207F09F009
:1025B00052C0561313C0491311C0FE2CE1100EC0B7
:1025C0008F7080618093C5010E940D12C6010E9428
:1025D0005E118091C501F801858358C1AB2831F0A7
:1025E0005F3F31F481E04F3F19F403C081E001C047
:1025F00080E080FD03C081E08E2502C080E090E095
:10260000F82FF170FF2E80FF1CC080918E01209169
:102610008F0136E0821709F417C190E0389FF0016E
:10262000399FF00D1124E057FE4F6181561306C00B
:102630006081461303C06281E61203C00196877071
:10264000E9CFFE2CEE2009F421C18091C501816003
:102650008093C5015AC0561306C0491304C0E11047
:1026600002C0F8019FC04D875E878D859E850E94C0
:10267000C811882379F1EE2069F12091C501822FDC
:1026800082958F7090E0029774F08091C0019091D4
:10269000C10198878F831986BB86AA862C87CE01B5
:1026A00007960E945E1186E0F801A0ECB1E001906F
:1026B0000D928A95E1F70E941B120E940D120DC027
:1026C000561729F14D875E878D859E850E94C8111A
:1026D00081112CC0C8010E945E11FF24F394D6C062
:1026E000282F207F69F77A2DB98AA88A6E2D8989CB
:1026F0000E94CD1180EC91E00E945E1186E0F6010F
:1027000011928A95E9F70E940D12F12CBFC049136E
:10271000D9CFE110D7CFF8018583C8010E945E119F
:1027200086E0F60111928A95E9F7B0C0EE2091F2A9
:102730002091C501822F82958F7090E002970CF452
:10274000B2CF8091C0019091C1019A8389831B828D
:10275000BD82AC822E83CE010196A3CFE83CF10569
:1027600008F047C0FE2CEE2009F4B4CF561330C059
:1027700049132EC02091C50120FD21C0822F8295D2
:102780008F70482F50E041155105C9F0F80125839D
:102790004F30510541F08F5F982F9295907F822F97
:1027A0008F70892B8583C8010E945E1186E0F80135
:1027B000A0ECB1E001900D928A95E1F742C086E06D
:1027C000F801A0ECB1E001900D928A95E1F75EC0AE
:1027D0004D875E878D859E850E94C811811163CFCC
:1027E0008091C50181608093C501C8010E945E117E
:1027F0004DC07A2DB98AA88A6E2D89890E94CD1183
:1028000086E0F60111928A95E9F71BC0EE2009F4E3
:1028100061CF4D875E878D859E850E94C811F82EF9
:10282000882309F457CF86E0F801A0ECB1E00190CD
:102830000D928A95E1F780EC91E00E94AD0E0E9426
:102840001B120E940D1222C04D875E878D859E85CA
:102850000E94B216292F22952F70223028F49F70E3
:1028600039F0811105C00BC0243028F49F7049F461
:10287000805E883020F0C8010E945E119F2CF92CE8
:1028800005C0F8019581907F99F7F9CF8F2D61965A
:102890000FB6F894DEBF0FBECDBFDF91CF911F9171
:1028A0000F91FF90EF90DF90CF90BF90AF909F90EF
:1028B00008951F93CF93DF93CDB7DEB72C970FB654
:1028C000F894DEBF0FBECDBF4F83588769877A87E4
:1028D0008B879C87CE0107960E9487128823D1F0B0
:1028E0009F8188852A853B85232B31F08F3F31F4EA
:1028F00081E09F3F19F403C081E001C080E080FDCA
:1029000047C04F81588569857A858B859C850E9453
:10291000DC113EC086E0FE013796DE011196019083
:102920000D928A95E1F7FF81E8856A857B856115BF
:10293000710531F0EF3F31F481E0FF3F19F403C03E
:1029400081E001C080E080FD23C020918F0130E054
:10295000C90101968770992740918E0150E0841734
:102960009507F1F1F983EA837D836C8396E0929F6A
:10297000D001939FB00D1124A057BE4FFE01319698
:1029800001900D929A95E1F780938F010E94EC11CE
:1029900016E080918E0190918F01891771F1189F37
:1029A000C001112480579E4F0E948712882329F16D
:1029B000E0918E011E9FF0011124E057FE4F4081EF
:1029C000518162817381848195810E94DC118091A3
:1029D0008E0190E001968770992780938E01D9CF60
:1029E0000E94A01110928F0110928E01E0ECF1E094
:1029F00086E0DF011D928A95E9F72C960FB6F894D0
:102A0000DEBF0FBECDBFDF91CF911F910895089516
:102A100008950C9408150C9409150E940B156093E9
:102A2000E8017093E9018093EA019093EB010C9423
:102A30008E110C940D150F931F930091E8011091C6
:102A4000E9012091EA013091EB01602B712B822B7F
:102A5000932B1F910F910C940D150F931F930091C1
:102A6000E8011091E9012091EA013091EB01602326
:102A70007123822393231F910F910C940D150F93B3
:102A80001F930091E8011091E9012091EA01309132
:102A9000EB0160277127822793271F910F910C94D8
:102AA0000D150C9408150E9451156093E401709364
:102AB000E5018093E6019093E7010C948E1160E0AC
:102AC00070E0CB010C9453150F931F9341E050E03D
:102AD00060E070E08A019B0104C0000F111F221FFB
:102AE000331F8A95D2F7C901B8011F910F910C9439
:102AF00053150F931F9341E050E060E070E004C075
:102B0000440F551F661F771F8A95D2F78091E40105
:102B10009091E501A091E601B091E7018A019B0146
:102B2000082B192B2A2B3B2BC901B8011F910F91A0
:102B30000C9453150F931F9341E050E060E070E058
:102B400004C0440F551F661F771F8A95D2F7409522
:102B50005095609570958091E4019091E501A09168
:102B6000E601B091E7018A019B01082319232A237A
:102B70003B23C901B8011F910F910C9453150F937A
:102B80001F9341E050E060E070E004C0440F551F27
:102B9000661F771F8A95D2F78091E4019091E50135
:102BA000A091E601B091E7018A019B01082719274E
:102BB0002A273B27C901B8011F910F910C94531587
:102BC0000F931F930091E4011091E5012091E6011C
:102BD0003091E701602B712B822B932B1F910F916A
:102BE0000C9453150F931F930091E4011091E5018C
:102BF0002091E6013091E701602371238223932322
:102C00001F910F910C9453150F931F930091E401A2
:102C10001091E5012091E6013091E70160277127CD
:102C2000822793271F910F910C9453150895292FF4
:102C3000220F920F990F890FE82FE695E695E695FA
:102C4000877051E001C0550F8A95EAF785E0E89F4B
:102C5000F0011124EA53FE4F20E030E070E04081A3
:102C6000CB01022E02C0969587950A94E2F78170F7
:102C7000819584278523842781932F5F3F4F2530BB
:102C8000310569F70895292F220F920F990F890FA7
:102C9000682F669566956695982F977085E0689F72
:102CA000B001112440E050E080E0FB01E40FF51F8B
:102CB000EA53FE4F208130E0092E02C03695279559
:102CC0000A94E2F721703327042E01C0220F0A94E0
:102CD000EAF7822B4F5F5F4F4530510531F708957A
:102CE000BF92CF92DF92EF92FF920F931F93CF93F9
:102CF000DF938C01C090E401D090E501E090E60103
:102D0000F090E7018091E8019091E901A091EA013A
:102D1000B091EB01C82AD92AEA2AFB2ACFE1D0E0F8
:102D2000D701C6010C2E04C0B695A7959795879537
:102D30000A94D2F780FD04C0219790F7B12C07C008
:102D4000BC2EB8018C2F0E9417050197A9F38B2D7B
:102D5000DF91CF911F910F91FF90EF90DF90CF9077
:102D6000BF900895CF93DF93EC010E947016BE01CF
:102D70000E941705DF91CF9108951F93CF93DF93A2
:102D8000EB0190918D01992321F0CB010E94B216A5
:102D900013C0882349F0CB010E947016182F682FAA
:102DA000CE010E94171604C0CB010E944316182FB3
:102DB000BE01812F0E941705DF91CF911F910895C9
:102DC0008091EC0185958595859508958091EC011C
:102DD000877008959091EC01977081E009F480E08C
:102DE00008958091F80108959091F801892B8093BE
:102DF000F801089580959091F80189238093F80156
:102E000008951092F80108959091F701892B80930D
:102E1000F701089580959091F70189238093F70138
:102E200008951092F70108951092F6010895809187
:102E3000ED01089508950C941A170C941B179091A6
:102E4000ED01981721F08093ED010C941D17089562
:102E50008091ED01882329F01092ED0180E00C941F
:102E60001D170895E0912401F09125018091F8014A
:102E70008083E0912401F091250190818091F701F8
:102E8000892B8083E0912401F0912501908180912C
:102E9000F601892B80838091ED01882381F0E091F8
:102EA0002401F09125019081892B80838091240158
:102EB000909125010E94451881110E942817809148
:102EC0002401909125010C94550D0C941A1798E04B
:102ED000899F90011124262B2093EC010E947915E3
:102EE0008091EC018595859585950C9465171092D8
:102EF000EC0180E00C9465172091EC018095822311
:102F00008093EC01982F977079F430E0482F082EC9
:102F1000000C550B2417350739F085958595859557
:102F20000E949A150C947717089580E0089580E028
:102F300090E00E94662021E08B3E9E4F09F020E049
:102F4000822F089582E090E00C945E2083E090E070
:102F50000C945E20CF9384E090E00E945E20C82F06
:102F600081E290E00E945E202C2F30E0A901582BD6
:102F7000CA01CF910895CF93C92F682F84E090E0C4
:102F80000E946C206C2F81E290E0CF910C946C2019
:102F9000AB01BC018FE090E00C947E20AB01BC0142
:102FA00083E190E00C947E2060E070E0CB010C9413
:102FB000CE1760E070E0CB010E94C8170C94D417C4
:102FC0006BEE7EEF80E090E00E948A2060E082E07D
:102FD00090E00E946C2060E083E090E00E946C2012
:102FE0001092E8011092E9011092EA011092EB01AF
:102FF00060E084E090E00E946C2060E081E290E07C
:103000000E946C2060E085E090E00E946C2060E00F
:1030100086E090E00E946C206FEF87E090E00E94D5
:103020006C2040E050E0BA0188E090E00E947E20F1
:1030300060E08DE090E00E946C2040E050E0BA013A
:1030400088E190E00E947E2060E087E190E00E94AD
:103050006C2040E050E0BA018CE190E00E947E20BC
:1030600060E080E290E00E946C2040E050E0BA0115
:1030700088E190E00E947E200C94D9170C94E01710
:10308000682F8EE090E00C946C20FC01329697E063
:1030900080E0915029F021912223D9F38F5FF9CF5D
:1030A0000895662349F0FC01329608962191621733
:1030B00029F0E817F907D1F780E0089581E0089535
:1030C0009C01FC0132969FEF80E04191461789F008
:1030D0009F3F19F4411101C0982F8F5F8630A9F7E7
:1030E0009F3F39F0F901E90FF11D97FDFA956283D1
:1030F000089508959C012A5F3F4FFC0142814613C9
:1031000001C01282019682179307B9F708950C94B3
:1031100060180C947A18029626E0FC0111922A9508
:10312000E9F7089508950C9492180C949218CF938F
:103130000E9495180E9455030E949318C0E08C2F9E
:103140000E94CB03811104C0CF5FC830C1F701C01A
:1031500081E0CF9108950C9492180C94AB18809153
:103160000F02843049F10E94AD1880E00E94FB04F8
:103170001092FA0120E488E190E00FB6F894A89547
:10318000809360000FBE2093600083B7817F8460CE
:1031900083BF83B7816083BF7894889583B78E7F20
:1031A00083BF0FB6F894A8958091600088618093E2
:1031B0006000109260000FBE08950C9492180E9457
:1031C000A0110E94490D0E94FB040C94DD181F926F
:1031D0000F920FB60F9211248F939F93AF93BF93CB
:1031E0008091FA01811113C080910502909106022D
:1031F000A0910702B09108024196A11DB11D8093D4
:10320000050290930602A0930702B0930802BF91B3
:10321000AF919F918F910F900FBE0F901F901895B7
:1032200082E084BD93E095BD9AEF97BD80936E00D8
:1032300008952FB7F8948091050290910602A0910D
:103240000702B09108022FBF08952FB7F89460913C
:1032500005027091060280910702909108022FBF2B
:1032600008959C014FB7F894809105029091060251
:10327000A0910702B09108024FBF821B930B0895E3
:1032800078941F920F920FB60F9211248F939F93F1
:10329000AF93BF938091050290910602A09107021F
:1032A000B09108020196A11DB11D80930502909373
:1032B0000602A0930702B0930802BF91AF919F91BD
:1032C0008F910F900FBE0F901F90189587E797E78B
:1032D00090930108809300089AE088E10FB6F89473
:1032E000A895809360000FBE90936000FFCF9093ED
:1032F00041018093400108950E949717811102C0F7
:103300000E943E180E94A2178093F9010E94AA17FA
:1033100090930A02809309020E94A617682F70E01A
:1033200080E090E00E9419156091E4017091E50140
:103330008091E6019091E7010C9451158091030270
:103340000895089522E02093E9002FEF3091E800DE
:10335000215035FD06C035ED3A95F1F700002111F9
:10336000F5CF2091E80025FF0BC040E050E066E07B
:1033700070E00E94851B8091E8008E778093E800C2
:103380000895CF93DF9321E02093E9002FEF309150
:10339000E800215035FD06C035ED3A95F1F7000003
:1033A0002111F5CF2091E80025FF14C0EC0140E089
:1033B00050E068E070E00E94851B8091E8008E7705
:1033C0008093E80088E0FE01ABEFB1E001900D9240
:1033D0008A95E1F7DF91CF910895089580910E02CB
:1033E000811109C00E94161D0E94731D8091E20088
:1033F00084608093E200089510920E02089508956B
:103400000895089542E061EC81E00E948F1C42E241
:1034100061EC82E00C948F1C80911102833009F4DE
:1034200060C030F4813071F0823009F499C00895A1
:103430008A3009F485C08B3009F46BC0893009F0FB
:10344000A7C020C080911002813A09F0A1C08091EC
:10345000E800877F8093E800809114029091150224
:10346000892B21F468E08BEF91E003C060E080E0FD
:1034700090E070E00E94D01B8091E8008B778093F1
:10348000E800089580911002813209F081C0809196
:10349000140290911502029708F07AC08091E8001A
:1034A000877F8093E8008091E80082FD05C08091CD
:1034B0000F028111F8CF6CC02091F3008091F200CF
:1034C00090E0922B029729F48091F1008B7F81305C
:1034D00021F48091F100809303028091E8008B77C2
:1034E00053C080911002813A09F052C080911402B9
:1034F00090911502892B09F04BC08091E800877FDD
:103500008093E8008091E80080FFFCCF809130013B
:1035100036C0809110028132D9F5809114029091C9
:103520001502892BA9F58091E800877F8093E80038
:103530000E94C41C80911202809330010C94A0114F
:1035400080911002813221F58091E800877F80937D
:10355000E8000E94C41C8091130280930402089525
:1035600080911002813AA1F48091E800877F8093D6
:10357000E8008091E80080FFFCCF809104028093F6
:10358000F1008091E8008E778093E8000C94C41CD1
:10359000089584B7877F84BF0FB6F894A89580916B
:1035A0006000886180936000109260000FBE90E020
:1035B00080E80FB6F89480936100909361000FBE8D
:1035C0000E94C50D0E94161D0E94731D8091E2008D
:1035D00084608093E20078940E9408200E94CF0DBE
:1035E00086E291E00E94440D80910F028530A9F49B
:1035F00080910F02853079F40E94AF1880910D02FE
:103600008823B1F30E949718882391F30E946F1BBF
:103610000E94A011EDCF0E94DF180E94D70D0E94DA
:10362000B90D0E94B80DE0CF0C94161B292F33273B
:1036300023303105C9F060F42130310581F02230AA
:10364000310509F044C08BE390E028E932E043C043
:1036500021323105E1F02232310549F138C082E1F1
:1036600090E023ED32E037C099278130910549F091
:1036700028F0029761F5E4E7F2E005C0E4E9F2E042
:1036800002C0E2E8F2E0849190E09F0124C061155D
:10369000710541F061307105D1F489E090E023ECCF
:1036A00032E019C089E090E02AEA32E014C06115E6
:1036B000710541F06130710551F489E490E025EE27
:1036C00032E009C080E490E02EE233E004C080E004
:1036D00090E020E030E0FA0131832083089580E11A
:1036E00089BD82E189BD09B400FEFDCF8091D8007B
:1036F0008F7D8093D8008091E00082608093E0000D
:103700008091E00081FDFCCF0895CF92DF92EF928F
:10371000FF920F931F93CF93DF93EC018B017A01FC
:103720000E94E31C811133C0E114F10439F0F70168
:1037300080819181081B190BC80FD91FC12CD12C76
:103740000115110519F18091E80085FD16C08091E1
:10375000E8008E778093E800E114F10449F0F70166
:1037600080819181C80ED91ED182C08285E00FC0B0
:103770000E94E31C882321F30AC089918093F10001
:1037800001501109FFEFCF1ADF0ADACF80E0DF9195
:10379000CF911F910F91FF90EF90DF90CF90089500
:1037A00020911602309117022617370748F061154D
:1037B000710539F42091E8002E772093E80001C0CC
:1037C000B901FC0120E06115710579F180910F02CA
:1037D0008823F1F18530F1F18091E80083FD3CC050
:1037E0008091E80082FD2EC08091E80080FFEBCF41
:1037F0002091F3008091F20090E0922B6115710509
:1038000051F08830910538F421912093F1006150F6
:1038100071090196F3CF21E0089709F020E080912B
:10382000E8008E778093E800CECF2111CFCF0AC079
:1038300080910F02882361F0853061F08091E8006B
:1038400083FD0AC08091E80082FFF2CF80E00895F6
:1038500082E0089583E0089581E0089520911602A2
:10386000309117022617370748F06115710539F4B2
:103870002091E8002E772093E80001C0B901FC01F7
:1038800020E06115710591F180910F02882309F400
:1038900040C0853009F43FC08091E80083FD3DC001
:1038A0008091E80082FD2FC08091E80080FFE9CF81
:1038B0002091F3008091F20090E0922B6115710548
:1038C00059F08830910540F424912093F10031960D
:1038D000615071090196F2CF21E0089709F020E0CC
:1038E0008091E8008E778093E800CBCF2111CCCF78
:1038F0000AC080910F02882361F0853061F08091C9
:10390000E80083FD0AC08091E80082FFF2CF80E0EA
:10391000089582E0089583E0089581E00895982F46
:10392000973068F59093E900981739F07091EC00A2
:103930002091ED005091F00003C0242F762F50E02D
:1039400021FD02C09F5FECCF3091EB003E7F3093B2
:10395000EB003091ED003D7F3093ED003091EB00B6
:1039600031603093EB007093EC002093ED005093A6
:10397000F0002091EE0027FDE5CF80E008958F70E4
:103980008093E90081E008958091100287FF11C0C3
:103990008091E80082FD05C080910F028111F8CF6F
:1039A00011C08091E8008B770BC080910F028823B3
:1039B00049F08091E80080FFF8CF8091E8008E7791
:1039C0008093E80008952091E4003091E50095E6A9
:1039D0004091EC00842F817040FF23C08091E8006B
:1039E00080FD1DC080910F02882399F0853099F0E9
:1039F0008091EB0085FD11C04091E4005091E500FD
:103A00002417350729F3915011F09A01E1CF84E092
:103A1000089582E0089583E0089581E0089580E0AC
:103A200008954091E80042FFDDCF08950E94841D73
:103A30000E948C1DE0EEF0E0808181608083E8EDE3
:103A4000F0E080818F77808319BCA7EDB0E08C9186
:103A50008E7F8C9380818F7E808310920E020895DA
:103A60000F931F93CF93DF930E94841D0E948C1DA0
:103A7000C8EDD0E088818F778883888180688883CB
:103A800088818F7D888319BC10920F0210920B02DF
:103A900010920D0210920C0200EE10E0F8018081ED
:103AA0008B7F808388818160888342E060E080E052
:103AB0000E948F1CE1EEF0E080818E7F8083E2EE39
:103AC000F0E0808181608083808188608083F8015C
:103AD00080818E7F8083888180618883DF91CF9110
:103AE0001F910F910895E8EDF0E080818F7E808333
:103AF000E7EDF0E080818160808384E082BF81E037
:103B000080930E020C94301DE8EDF0E080818E7FF2
:103B100080831092E20008951092DA001092E10082
:103B200008951F920F920FB60F9211242F933F9377
:103B30004F935F936F937F938F939F93AF93BF93B5
:103B4000EF93FF938091E10082FF0BC08091E20030
:103B500082FF07C08091E1008B7F8093E1000E948B
:103B600007208091DA0080FF1FC08091D80080FF7D
:103B70001BC08091DA008E7F8093DA008091D9009B
:103B800080FF0DC080E189BD82E189BD09B400FEDE
:103B9000FDCF81E080930F020E94EE1905C019BC91
:103BA00010920F020E94FC198091E10080FF19C061
:103BB0008091E20080FF15C08091E2008E7F8093AB
:103BC000E2008091E20080618093E2008091D80061
:103BD00080628093D80019BC85E080930F020E9418
:103BE000001A8091E10084FF30C08091E20084FFE0
:103BF0002CC080E189BD82E189BD09B400FEFDCF02
:103C00008091D8008F7D8093D8008091E1008F7ED5
:103C10008093E1008091E2008F7E8093E2008091AA
:103C2000E20081608093E20080910B02882311F012
:103C300084E007C08091E30087FD02C081E001C0FD
:103C400083E080930F020E94011A8091E10083FFBC
:103C500029C08091E20083FF25C08091E100877F29
:103C60008093E10082E080930F0210920B0280911A
:103C7000E1008E7F8093E1008091E2008E7F80934F
:103C8000E2008091E20080618093E20042E060E027
:103C900080E00E948F1C8091F00088608093F0008B
:103CA0000E94FF19FF91EF91BF91AF919F918F916A
:103CB0007F916F915F914F913F912F910F900FBE28
:103CC0000F901F9018951F920F920FB60F9211240C
:103CD0002F933F934F935F936F937F938F939F9314
:103CE000AF93BF93CF93DF93EF93FF93C091E9001E
:103CF000CF708091EC00D82FD17080FDD0E8109269
:103D0000E9008091F000877F8093F00078940E9412
:103D1000A71E1092E9008091F00088608093F00067
:103D2000CD2BCF70C093E900FF91EF91DF91CF9140
:103D3000BF91AF919F918F917F916F915F914F91C3
:103D40003F912F910F900FBE0F901F9018951F93CA
:103D5000CF93DF93CDB7DEB7AA970FB6F894DEBF47
:103D60000FBECDBFE0E1F2E08091F100819322E04F
:103D7000E831F207C9F70E940C1A8091E80083FF2E
:103D80002EC18091100290911102492F50E04A30CB
:103D9000510508F024C1FA01E059FF4F0C94372077
:103DA000803821F0823809F01AC108C080910C02D5
:103DB00090910D02992389F082600FC080911402C6
:103DC0008F70873008F00BC18093E9008091EB0081
:103DD00085FB882780F91092E9009091E800977F91
:103DE0009093E8008093F1001092F100D1C0282F49
:103DF0002D7F09F0F4C0882319F0823061F0EFC004
:103E000080911202813009F0EAC0933009F080E01D
:103E100080930D022EC08091120281112AC08091E0
:103E200014028F702FEF280F263008F0D8C080932F
:103E3000E9002091EB0020FF1CC0933021F4809119
:103E4000EB00806214C09091EB0090619093EB00C6
:103E500021E030E0A90102C0440F551F8A95E2F726
:103E60004093EA001092EA008091EB008860809312
:103E7000EB001092E9008091E800877F8093E800D2
:103E80000E94C41CACC08111AAC0109112021F77FD
:103E90008091E3008078812B8093E3008091E8009B
:103EA000877F8093E8000E94C41C8091E80080FF17
:103EB000FCCF8091E30080688093E300111102C081
:103EC00082E001C083E080930F0289C08058823075
:103ED00008F085C080911202909113028C3D53E04E
:103EE000950779F583E08A838AE289834FB7F8944E
:103EF000DE01139620E03EE051E2E32FF0E0509324
:103F00005700E49120FF03C0E295EF703F5FEF7030
:103F10008E2F90E0EA3010F0C79601C0C0968D93C6
:103F20009D932F5F243149F74FBF8091E800877F31
:103F30008093E8006AE270E0CE0101960E94D01BF7
:103F400016C06091140270911502AE014F5F5F4F71
:103F50000E94141BBC01892B09F441C09091E80018
:103F6000977F9093E80089819A810E942E1C80910E
:103F7000E8008B778093E80032C0803881F580912B
:103F8000E800877F8093E80080910B028093F10026
:103F90008091E8008E7772CF811121C0809112024A
:103FA0009091130299270297D4F48091E800877FBB
:103FB0008093E8008091120280930B020E94C41C3F
:103FC00080910B02811106C08091E30087FD02C041
:103FD00081E001C084E080930F020E94021A809168
:103FE000E80083FF0AC08091E800877F8093E800A3
:103FF0008091EB0080628093EB00AA960FB6F89454
:10400000DEBF0FBECDBFDF91CF911F910895089500
:10401000CF9380910F028823A1F0C091E900CF7067
:104020009091EC00892F817090FD80E8C82B109250
:10403000E9008091E80083FD0E94A71ECF70C09325
:10404000E900CF91089597FB072E16F4009407D04E
:1040500077FD09D00E943D2007FC05D03EF49095E5
:1040600081959F4F0895709561957F4F0895EE0F4C
:10407000FF1F0590F491E02D0994AA1BBB1B51E191
:1040800007C0AA1FBB1FA617B70710F0A61BB70BC8
:10409000881F991F5A95A9F780959095BC01CD016D
:1040A0000895FB01DC0104C08D910190801921F479
:1040B00041505040C8F7881B990B0895F999FECFDD
:1040C00092BD81BDF89A992780B50895A8E1B0E026
:1040D00042E050E00C949220262FF999FECF92BD39
:1040E00081BDF89A019700B4021639F01FBA20BDBD
:1040F0000FB6F894FA9AF99A0FBE08950396272FEF
:104100000E946D200E946C20252F0E946D20242F7C
:104110000C946D200196272F0E946D200C946C202A
:10412000DC01CB01FC01F999FECF06C0F2BDE1BD77
:10413000F89A319600B40D9241505040B8F7089566
:04414000F894FFCF21
:10414400050159010000000157015901045A0101F8
:1041540057015801000000045E01FFFF2808641E97
:10416400140A321EEE019E19C119A219ED19A119E2
:1041740001F4F5F6F73133946697C60000000000A9
:00000001FF
