:100000000C94C2020C9409030C9409030C947A23F7
:100010000C9409030C9409030C9409030C94090330
:100020000C9409030C9409030C94DF1B0C941B1B08
:100030000C94DF1E0C9409030C9409030C9409031F
:100040000C9409030C9409030C9409030C94090300
:100050000C9409030C94681E0C9409030C94090376
:100060000C9409030C9409030C9409030C940903E0
:100070000C9409030C9409030C9409030C940903D0
:100080000C9409030C9409030C9409030C940903C0
:100090000C9409030C9409030C9409030C940903B0
:1000A0000C9409030C9409030C940903D00CD00C94
:1000B0000A0D0A0D5D0D790D0B0F0B0F840D620EED
:1000C000730E730E3E0C560F5B0F600F650F6A0FB9
:1000D0006F0F740F790F7E0F830F8A0F5F0C5F0C09
:1000E0005F0C5F0C5F0C5F0C5F0C5F0CEF14EF1488
:1000F00002150215F814021502150215EF14EF147B
:10010000FD1402150215FD1436195D19F31A5D1957
:10011000F31AA519C819F31AB71ACA1A000101016E
:1001200001010101010102020202020202020203B4
:100130000303030303030304040404040404050584
:100140000505050606060606070707070708080847
:1001500008090909090A0A0A0B0B0B0C0C0C0D0DF6
:100160000D0E0E0E0F0F0F1010111111121213138E
:100170001414151516161717181819191A1A1B1B07
:100180001C1D1D1E1E1F2020212222232424252663
:1001900026272829292A2B2C2D2D2E2F303132329B
:1001A000333435363738393A3B3C3D3E3F404142A7
:1001B000434445464748494A4C4D4E4F505153548D
:1001C000555658595A5B5D5E5F6162646566686941
:1001D0006B6C6D6F7072737577787A7B7D7E8082C1
:1001E000838587888A8C8E8F91939596989A9C9E0A
:1001F000A0A2A3A5A7A9ABADAFB1B3B5B7BABCBE1A
:10020000C0C2C4C6C9CBCDCFD1D4D6D8DBDDDFE2E6
:10021000E4E7E9EBEEF0F3F5F8FAFDFF00AF0000DC
:1002200000001700150008001A0014002900000043
:1002300000000A0009000700160004002B0000005F
:1002400000000500190006001B001D00E10002511E
:10025000E000E200E30000000000000000000000F9
:1002600000001C0018000C00120013004C000000DD
:1002700000000B000D000E000F00330034000000E2
:10028000000011001000360037003800E500015171
:100290002C002A0000000000000000000000000008
:1002A0000000310230022F021F021E02290000004E
:1002B0000000350027022602210220022B00000048
:1002C0000000550030002F0023022202E100000050
:1002D000E00000000000000000000000000000003E
:1002E00000003500000052002D002E004C000000E0
:1002F00000002E02500051004F0028004A0000006C
:100300000000560000003600370038004D000000A5
:1003100000000000000000000000000000000000DD
:1003200000002200210020001F001E002900000004
:1003300000003F003E003D003C003B003A00000052
:10034000000045004400430042004100400000001E
:10035000E0000000000000000000000000000000BD
:100360000000230024002500260027004C00000088
:10037000000000000000000000000000000000007D
:100380000000000000003600370000000000000000
:100390002C002A0000000000000000000000000007
:1003A00000003E003D003C003B003A000100000020
:1003B0000000C45CCA5CC65CC85CC35C0100010090
:1003C0000100C55CCB5CC75CC95C01000100010099
:1003D0000100010001000100000000000000000019
:1003E00000003F00400041004200430001000000C7
:1003F0000000A900A8000100440045000100010020
:100400000100AA00BB000100010001000100010081
:10041000010001000100010000000000000000DAFE
:100420000281FFD9F1DB20A4A62EAF00A0C000A15D
:10043000C800AED580A81FD300408D14200000AEA8
:1004400005010902A10185020901A100050919019F
:100450002905150025019505750181029501750392
:1004600081010501093009311581257F9502750843
:10047000810609381581257F950175088106050CCF
:100480000A38021581257F950175088106C0C005CF
:10049000010980A101850319012AB700150126B7BA
:1004A00000950175108100C0050C0901A1018504AA
:1004B00019012AA002150126A002950175108100DC
:1004C000C005010906A101050719E029E715002566
:1004D00001950875018102950175088101050719CB
:1004E0000029FF150026FF00950675088100050804
:1004F0001901290595057501910295017503910171
:10050000C009023B00020100A0FA09040000010337
:1005100001010009211101000122400007058103AA
:1005200008000A090401000103000000092111016B
:1005300000012281000705820320000A1201100138
:1005400000000008EDFE00000100010200011E0392
:100550004B00790072006900610020004B006500CB
:10056000790062006F0061007200640000001003F7
:10057000730070006C00690074006B006200000082
:100580000403090411241FBECFEFDAE0DEBFCDBFA4
:1005900004B603FE27C08091D9049091DA04A0919B
:1005A000DB04B091DC048730904BA740B04BD1F412
:1005B0001092D9041092DA041092DB041092DC0439
:1005C00014BE84B7877F84BF0FB6F894A895809136
:1005D0006000886180936000109260000FBEE0E0D0
:1005E000F8E3099524E0A6E8B1E001C01D92A93D19
:1005F000B207E1F711E0A0E0B1E0EAE0FAE402C0FE
:1006000005900D92A638B107D9F70E94AA0F0C9455
:1006100003250C9400009091EC0192FF0DC0282F4F
:100620002871283019F4877F846006C0282F247130
:10063000243011F48B7F886093FF0DC0282F287120
:10064000283119F4877E846106C0282F2471243153
:1006500011F48B7E88612091ED0120FF0DC0382FB1
:100660003871383019F4877F816006C0382F3171B6
:10067000313011F48E7F886021FF0DC0282F287142
:10068000283119F4877E816106C0282F217121311C
:1006900011F48E7E886194FD877E08951F93CF9319
:1006A000DF93CDB7DEB767970FB6F894DEBF0FBE06
:1006B000CDBF4B8B5C8B6D8B7E8B8F8B86E09E01D1
:1006C000235F3F4FD901E82F1D92EA95E9F795E0A6
:1006D000FE017396D90101900D929A95E1F7F90107
:1006E000DE01179601900D928A95E1F7CE010796EB
:1006F0000E94061581113EC086E0FE013796DE019C
:10070000119601900D928A95E1F7FF81E8856A853F
:100710007B856115710531F0EF3F31F481E0FF3FDA
:1007200019F403C081E001C080E080FD23C0209166
:100730006E0430E0C90101968770992740919F04AB
:1007400050E08417950779F1F983EA837D836C8300
:1007500096E0929FD001939FB00D1124A159BB4FF9
:10076000FE01319601900D929A95E1F780936E0407
:100770000E94F42016E080919F0490916E048917E6
:10078000F9F0189FC001112481599B4F0E94061552
:100790008823B1F080919F0490E00196877099279B
:1007A00080939F04E8CF0E94D21610926E0410929C
:1007B0009F04E8E6F4E086E0DF011D928A95E9F700
:1007C00067960FB6F894DEBF0FBECDBFDF91CF9115
:1007D0001F9108952091CB013091CC012817390742
:1007E00071F09093CC018093CB01E091F801F091EE
:1007F000F901309721F00084F185E02D09940895E6
:100800002091C9013091CA012817390771F09093DE
:10081000CA018093C901E091F801F091F901309784
:1008200021F00680F781E02D09940895E091F80108
:10083000F091F901309721F00190F081E02D0994B9
:1008400080E00895809132048823F9F00E949D1E73
:10085000DC01CB01805A9541AF4FBF4F80932D04EF
:1008600090932E04A0932F04B09330048091310410
:1008700081110BC062E070E08CE192E00E94FD17F4
:10088000892B19F481E0809331048091310408951B
:10089000882311F0FA0101C0FB0109943091010194
:1008A0008091F10180FF16C0E091000163E0E69FB6
:1008B000F0011124E557FE4F539A8BB1877F9BB10E
:1008C00098602FB7F894AF0163E0369F400D511D3B
:1008D000112414C08091020190910301891720F71F
:1008E000E82FF0E0AF01440F551FE40FF51FE55767
:1008F000FE4F1182108212828F5FF0CFE417F5074E
:1009000089F0319168E09BB9000000C037FF8BB9D6
:10091000330F000000C000C000C08BB900C06A9552
:1009200091F7ECCF2FBF8FE594E00197F1F700C06E
:10093000000008958091F101982F9695913021F053
:10094000817082608093F1010895CF92DF92EF92DF
:10095000FF926B017C010E949A04B701A60188E016
:1009600090E0FF90EF90DF90CF900C94B3249F9293
:10097000AF92BF92CF92DF92EF92FF920F931F93AD
:10098000CF93DF939091F10190FFD3C0922E142F5B
:10099000C62FD82FE92FE695F0E0E65DFE4F808167
:1009A0008093EE019E7F923009F095C0E42FF0E035
:1009B000611106C0E45EFE4FE491FE2F2E2F72C03F
:1009C000E62EF12CE45EFE4FF4910F2FCF2ED12CAA
:1009D00026E0D29FC00111242FEF30E0B9010E9420
:1009E000D5244BEA4603C001479F900D11248D0F7B
:1009F000911D8D0F911DB82EBB0CB80EA9014E197B
:100A00005F094C9DC0014D9D900D5C9D900D112482
:100A1000E92FCB9DA0011124452F5527D901A41BF7
:100A2000B50BAC9DA001AD9D500DBC9D500D11248A
:100A3000D901AB19B1095D01AE9CD001AF9CB00DDD
:100A4000BE9CB00D1124AB2FBB272A1B3B0B2C9D4A
:100A5000D0012D9DB00D3C9DB00D11242B2F623087
:100A6000710591F048F461157105E1F0613071058F
:100A7000B9F42F2FF52F16C06430710569F040F0DE
:100A80006630710579F00CC02F2FF92FEB2F0AC0BB
:100A9000F92FE02F252F06C0292FEF2FFB2F02C0A3
:100AA000292FE52F8091020190910301891788F485
:100AB000A82FB0E0AD01440F551FA40FB51FA557D7
:100AC000BE4F1196FC9311972C931296EC938F5F67
:100AD000EDCF0E944E048091F201D81308C080919E
:100AE000F301C81304C08091F401181729F0809114
:100AF000F00182608093F001D093F201C093F30182
:100B00001093F4019920A9F06091F1017091F20124
:100B10008091F3019091F401DF91CF911F910F919A
:100B2000FF90EF90DF90CF90BF90AF909F900C948C
:100B3000A504DF91CF911F910F91FF90EF90DF906F
:100B4000CF90BF90AF909F900895E1EFF1E0438187
:100B500021E1421B08F440E021E0628181810C9494
:100B6000B704E1EFF1E0438121E1420F08F44FEFD8
:100B700021E0628181810C94B704E1EFF1E06281B0
:100B800021E1621B08F460E021E0438181810C9443
:100B9000B704E1EFF1E0628121E1620F08F46FEF49
:100BA00021E0438181810C94B704E1EFF1E0818180
:100BB00021E04381628188500C94B704E1EFF1E0B9
:100BC000818121E043816281885F0C94B704809128
:100BD000F501882319F081508093F5016091F101AE
:100BE0007091F2018091F3019091F4010C94A504AD
:100BF0008091F501833018F48F5F8093F501609147
:100C0000F1017091F2018091F3019091F4010C9443
:100C1000A5048091F10180FF1EC0817082608093E5
:100C2000F1018091F00181608093F001662351F021
:100C30006091F1017091F2018091F3019091F401C2
:100C40000E94A50420E04091F4016091F30180919D
:100C5000F2010C94B70408958091F10186958150BA
:100C600009F481E061E00C94090661E081E00C94F4
:100C70000906E1EFF1E083E0808311828FEF828348
:100C800083831482AEEEB1E012968C91129783604A
:100C900012968C9360817181828193810C94A5045A
:100CA00080918A01811112C08091D8008061809367
:100CB000D8008AE18A95F1F700C08091D90080FDC3
:100CC00002C082E001C081E080938A0181E09091BE
:100CD0008A01913009F080E00895F894E82FE295B8
:100CE000EF70F0E031A1282F2F7081E090E001C07B
:100CF000880F2A95EAF7982F9095932391A392A1B4
:100D0000892B82A378940895CF93DF93E72FF0E0A7
:100D100028E0829FE00DF11D1124B3E0EE0FFF1FCC
:100D2000BA95E1F7E60FF11DEE0FFF1FE25EFD4FF2
:100D3000C591D491CE01C238D10569F1B0F4C13367
:100D4000D10509F475C048F4C932D10509F469C068
:100D5000CA32D10509F473C085C0C533D10509F481
:100D600059C0C933D105B9F07DC0C33ED10571F179
:100D700038F4C03ED105B1F0C23ED10511F172C0C8
:100D8000C63ED105B9F1C73ED105C9F1C43ED10572
:100D900009F068C024C02091EC0120FD5DC021FD58
:100DA0005BC060C02091EC0120FD50C02091ED019E
:100DB00020FF51C18091EC0184FD4BC183EE90E096
:100DC0004AC12091EC0122FF46C1F4CF8091EC0191
:100DD00082FD3FC08091ED0180FD3EC0EBCF2091B0
:100DE000ED0121FF38C18091EC0184FD32C187EE15
:100DF00090E031C12091EC0123FF2DC1F4CF80910F
:100E0000EC0183FD2CC08091ED0181FFECCF84EEDD
:100E100090E021C12091EC0125FF1DC189E290E005
:100E20001AC12091EC0125FF16C185E390E013C1A2
:100E30002091EC0126FF0FC18AE290E00CC12091C5
:100E4000EC0126FF08C181E390E005C189E390E051
:100E500002C182EE90E0FFC080EE90E0FCC086EE22
:100E600090E0F9C0C11551E5D50708F06CC0C11577
:100E700020E5D207F0F0CE01F4E096958795FA953B
:100E8000E1F7282F23703C2F337081E090E002C0FF
:100E9000880F991F3A95E2F79C68922B2C2F2F70A0
:100EA0002695269540E2249F90011124822B932BB6
:100EB000D2C0C83ED10570F5C03ED10508F0CBC008
:100EC000C83AD105B8F4C53AD10550F02C2F255AAF
:100ED000C22FD0E0CC5ADE4F888190E09064BBC036
:100EE000C130D10509F4B7C008F4B3C0249708F4A1
:100EF000B0C0B1C0CF3BD10508F0ABC02C2F285AF1
:100F0000C22FD0E0CC0FDD1FC95ADE4F88819981F6
:100F10009464A1C0C11540E2D40760F4C11551E04A
:100F2000D50708F098C0C03FD10508F492C0CE01A3
:100F3000906591C0C11580E4D80708F48AC0CE013D
:100F40009F70906A88C0C11595E5D90708F040C028
:100F5000C11524E5D20728F09C2F8827846F906A5A
:100F60007AC0C11543E5D407A8F09E01237033274A
:100F700081E090E002C0880F991F2A95E2F72C2F9C
:100F80002695269540E2249F90011124822B932BD5
:100F90009A6861C0C11552E5D50728F49C2F8827AF
:100FA000816F906A58C09E012370332781E090E0E2
:100FB00002C0880F991F2A95E2F72C2F26952695B7
:100FC00050E2259F90011124822B932B9C6843C0F3
:100FD000C11589E5D807B0F4C11598E5D90728F0FF
:100FE0009C2F8827806F906A36C0C11526E5D207EE
:100FF00080F58C2F0E940B038F7190E0982F88272B
:10100000906229C0C1154AE5D40790F48C2F8F70E7
:101010000E940B039E0194E0369527959A95E1F77F
:101020002F7030E0322F22273069A901482B0FC0E2
:10103000CE0190568115904260F48D2F8F710E94E1
:101040000B039E01332730628F71A901582BCA010F
:1010500002C080E090E0DF91CF9108950F931F933D
:10106000CF93DF93C42FD22FFC0182818823C9F054
:101070004093CD010E94A91E9093C8018093C7019F
:1010800080E28C0F883008F05EC0C77081E001C03C
:10109000880FCA95EAF7DF91CF911F910F910C94B9
:1010A000E8168091CD0148133EC08091C701909110
:1010B000C8010E948E1E883C9105A8F510E21D0F04
:1010C000CD17B9F080E28C0F883040F4C77081E012
:1010D00001C0880FCA95EAF70E94DD16183048F45F
:1010E00081E09D2F977001C0880F9A95EAF70E94C2
:1010F000E816802F0E945917093349F4FFEF27EEB5
:1011000083E0F15020408040E1F700C00000802FD4
:101110000E94F2161830B8F4D77081E001C0880F31
:10112000DA95EAF70AC080E28C0F883060F4C77065
:1011300081E001C0880FCA95EAF7DF91CF911F9136
:101140000F910C94DD16DF91CF911F910F910895AF
:101150008F929F92AF92BF92CF92DF92EF92FF92C7
:101160000F931F93CF93DF930CE211E08EEDE82EE7
:1011700081E0F82E90E3892E91E0992E6701C0E07E
:10118000AA24A394B12CB801D8018C91F894E82F2B
:10119000E295EF70F0E021A18F70A50102C0440F2D
:1011A000551F8A95E2F7CA01922F982B91A392A11D
:1011B0008095892382A3789450EA5A95F1F7E4E365
:1011C000F1E020E030E0D0E04191842F82958F70F3
:1011D00090E0DC0190968C9190E04F7002C0959564
:1011E00087954A95E2F780FD07C08A2D022E01C03F
:1011F000880F0A94EAF701C080E0D82B2F5F3F4F99
:101200002830310509F70F5F1F4FFB0180810E94D5
:101210006D06D6018C91D81719F0DC9381E001C0DE
:1012200080E0C82BBFEFCB1ADB0A8016910609F0CD
:10123000AACFD091E701CC2349F081E080938801C7
:101240000E94A91E90938701809386018091880156
:101250008823B9F080918601909187010E948E1EAB
:10126000069778F0ED2FF0E0E550FE4F82EE91E02A
:10127000D7012D917D0121938A179B07C9F7109201
:1012800088010E945006882309F456C0D091E601D7
:101290008091F0018823E9F085E0E1EFF1E0AFEC27
:1012A000B1E001900D928A95E1F78091EE01909165
:1012B000EF01A091F0018093D4019093D501A09308
:1012C000D60181E090E00E940A24892B11F410924B
:1012D000F00180E090E00E940A24892B09F084C08C
:1012E000ED2FF0E0E550FE4F80E090E0DC01A852E9
:1012F000BE4F2C912193019684309105B9F7E0916E
:10130000F701F0E0ED5FFD4F8091DC019081891BDA
:10131000982F19162CF4915020812F5F2083F9CF3C
:10132000982F87FD90E0891B882309F45AC08F5FAE
:10133000908191509083F8CFE091E7010E2F10E05B
:101340008091D7018830B1F58091D60180FF23C00C
:101350009091CF018091F10190FF0AC0816080934C
:10136000F1018091CF0160E086950E94090613C0CB
:101370008E7F8093F1018091F00181608093F00174
:10138000BFEFE0E7F2E0B150E040F040E1F700C02D
:1013900000000E944E048091D60181FF09C020E028
:1013A0004091D2016091D1018091D0010E94B70497
:1013B0001092D701F801E550FE4F80E090E02191B6
:1013C000DC01A852BE4F2C93019684309105B9F7E9
:1013D000E0910602F0E0ED5FFD4F80818093DC013B
:1013E00013C01092890110C0809189018F5F809392
:1013F0008901863048F0E091E601F0E0E550FE4FCB
:1014000010821182128213828C2FDF91CF911F9153
:101410000F91FF90EF90DF90CF90BF90AF909F9093
:101420008F9008958F929F92AF92BF92CF92DF924A
:10143000EF92FF920F931F93CF93DF93CDB7DEB759
:101440002A970FB6F894DEBF0FBECDBFFC01D08047
:10145000118183819481892B39F01F3F39F491E008
:101460000FEFD01203C003C091E001C090E090FDE7
:1014700056C57F0185E0DE01169601900D928A9592
:10148000E1F7F70122818E819F81222349F00E949A
:10149000DD1F082F682F8E819F810E94562003C078
:1014A0000E942A20082FE12FF0E018E0019FE00DB4
:1014B000F11D112443E0EE0FFF1F4A95E1F7ED0DFA
:1014C000F11DEE0FFF1FE25EFD4F05911491043FE9
:1014D0002CE5120759F190F4093D8CE51807E9F065
:1014E0000A3D9CE51907A1F1083DECE51E07B1F5A1
:1014F00006E221EE41EE68ED7CE514C0063FFCE516
:101500001F0701F1C8F0073F3CE5130739F507E273
:1015100025EE46EE67EF7CE505C007E225EE45EED9
:1015200069ED7CE5C7010E942E08C9C106E221EEE3
:1015300040EE64EF7CE5F6CF07E225EE44EE65EF82
:101540007CE5F0CF06E221EE42EE66EF7CE5EACFE5
:1015500008E221E045EE6AED7CE5E4CFF7019281F7
:10156000992309F43FC11092CD010230FCE51F0719
:1015700008F422C106312CE5120738F098012B5FE0
:101580003C452930310508F017C10E942F1F909368
:10159000ED018093EC0100313CE5130709F4C3C071
:1015A00008F041C008309CE5190709F49AC0F0F42E
:1015B0000430FCE51F0709F487C068F402303CE5FD
:1015C000130709F477C003301C4509F0E5C080918A
:1015D000EC01826076C006309CE5190709F46EC004
:1015E00008F07BC08091EC0188606BC00C30FCE59A
:1015F0001F0709F485C068F40A303CE5130709F4B5
:1016000074C008F079C00E94D2168091EC01806805
:1016100058C00E309CE5190709F476C008F07FC069
:101620008091EC018BC00C3FFCE51F0709F44FC013
:1016300018F503313CE5130709F47DC078F4013156
:101640009CE5190709F473C002311C4509F0A4C0D8
:101650000E94D2168091EC018F7733C00531FCE5F2
:101660001F0709F472C008F486C00B3F1C4509F03F
:1016700093C08091ED013EC001158DE5180709F476
:101680005FC058F40E3FECE51E0709F444C008F4AF
:101690003FC08091ED0182602DC002302DE5120720
:1016A00009F475C008F45DC003301D4509F074C02D
:1016B00060E06EC08091EC01816003C08091EC011C
:1016C00080618093EC0168C08091EC0111C0809131
:1016D000ED0182608093ED015FC08091EC0180623A
:1016E000F0CF8091EC018064ECCF8091EC018860B8
:1016F0008460E7CF8160EECF8091EC018E7FE1CFF7
:101700008091EC018D7FDDCF8091EC01877FD9CF77
:101710008091ED0118C08091ED018D7FDBCF80912C
:10172000EC018F7ECECF8091EC018F7DCACF80916E
:10173000EC018F7BC6CF8091EC01877F8B7FC1CF7F
:101740008091ED018D7F8E7FC5CF8091EC0182FB72
:10175000222720F991E0922790FB82F990FB83F9F0
:10176000B0CF8091ED01982F909591708E7F892B4D
:1017700090FB81F9AFCF0E94D2168091EC0187FBDC
:10178000222720F991E0922790FB87F99ACF61E018
:101790008EE090E00E94A1246091EC011091ED0197
:1017A00084E090E00E94A124612F81E290E00E94F9
:1017B000A1240E94D21683C006312CE5120721F520
:1017C0008091CB048A7A91E009F490E09093CE0165
:1017D000882311F065E301C069E280E694E00E948D
:1017E000151F0FC00631FCE51F0709F087C0809167
:1017F000CE01882309F44EC365E380E694E00E949D
:10180000081F0E94B01F5BC001152CE5120739F0BC
:101810000F3D1C4509F07CC00E94401F50C00E9433
:10182000D2168FEF94E3ECE081509040E040E1F776
:1018300000C0000081E08093E00080E28093D80047
:101840001092C9008FE19EE40197F1F700C00000FB
:1018500087E090EBDC018093D9049093DA04A093A5
:10186000DB04B093DC049CE088E10FB6F894A89503
:10187000809360000FBE90936000FFCF8091F101D4
:1018800080FF0EC38E7F8093F1016091F101709112
:10189000F2018091F3019091F4010E94A5048091DE
:1018A000F00181608093F0019FEFE0E7F2E091505A
:1018B000E040F040E1F700C000000E944E0480913B
:1018C000C804877009F42BC3F7018281882309F4C7
:1018D00026C382E02A960FB6F894DEBF0FBECDBFB6
:1018E000DF91CF911F910F91FF90EF90DF90CF90FC
:1018F000BF90AF909F908F900C94B0208091CB04BC
:101900008272F801E35CFC45E431F10508F4C4C2DD
:10191000F70100811181992349F0C8010E94DD1F60
:10192000D82E682FC8010E94562004C0C8010E940A
:101930002A20D82EB8018D2D0E9484068C01982E65
:10194000F701A580A2943FE0A322D280D11010928B
:10195000CA048091C804877099F0DD2089F0812F36
:10196000807F803421F080E2800F883048F082E070
:101970000E94B0208091C8048770CC24C394811148
:10198000C12CB12EB2942FE0B2228B2D90E08C307E
:10199000910508F040C2FC01EA5AFF4F0C94FD2467
:1019A000812F807F1F70882311F01295107FDD201A
:1019B000B9F0112309F41AC280E2800F883010F0C8
:1019C000911006C08091CB04182B1093CB0405C056
:1019D0008091CA04182B1093CA040E94B01F06C23B
:1019E000802F0E94F216112309F415C2005E109593
:1019F000083010F0911006C08091CB04182310938A
:101A0000CB0405C08091CA0418231093CA040E9415
:101A1000B01F01C2812F807F1F70803211F012959C
:101A2000107F992021F0F1E09F16E1F02AC0DD201F
:101A300081F08091CC04AA2051F001E0A01207C0EF
:101A4000182B181709F4E7C11093CC04E4C1812BBB
:101A500010C0AA2021F021E0A21609F4DCC10E94E6
:101A6000AA1F27C0DD2041F035E03A1508F4D3C1A4
:101A7000812F0E94E816CFC184E08A1508F4CBC1FB
:101A800018C0DD2049F0AA2099F3F701858180FF75
:101A9000ADC18F708583ECCFAA2059F0093309F0CE
:101AA000B7C1FFEF17EE23E0F15010402040E1F7FF
:101AB000ADC1812F0E94DD16AEC1812F869586951E
:101AC000837019F0813059F0A6C1DD2019F0C801EA
:101AD000937002C080E090E00E940004A2C1DD206B
:101AE00019F0C801937002C080E090E00E94EA0300
:101AF00098C1802FDD2019F00E94001E02C00E94B4
:101B0000391D0E94B51E8DC1812F837009F069C0F7
:101B1000D11085C1902F929596959770990F990F36
:101B2000802F8F70882E912CA12CB12C092E04C0EF
:101B3000880C991CAA1CBB1C0A94D2F704FF12C083
:101B40004FE050E060E070E004C0440F551F661F96
:101B5000771F9A95D2F7DB01CA0180959095A095E1
:101B6000B09503C080E090E0DC0116951695412FFA
:101B70004370423019F1C8F40091CD041091CE04A5
:101B80002091CF043091D004413059F0882999290F
:101B9000AA29BB29BC01CD01602371238223932391
:101BA0000AC0802A912AA22AB32ABC01CD01682941
:101BB00079298A299B290E94EA2031C188299929FB
:101BC000AA29BB290091CD041091CE042091CF0405
:101BD0003091D004BC01CD01602771278227932763
:101BE000EACFDD2019F0812F817001C0869588230E
:101BF00009F415C1902F929596959770990F990FAA
:101C0000802F8F70882E912CA12CB12C092E04C00E
:101C1000880C991CAA1CBB1C0A94D2F704FF12C0A2
:101C20004FE050E060E070E004C0440F551F661FB5
:101C3000771F9A95D2F7DB01CA0180959095A09500
:101C4000B09503C080E090E0DC0116951695412F19
:101C500043704230D9F068F50091E8011091E90134
:101C60002091EA013091EB01413059F088299929FE
:101C7000AA29BB29BC01CD016023712382239323B0
:101C80001EC0802A912AA22AB32A13C08829992922
:101C9000AA29BB290091E8011091E9012091EA01EC
:101CA0003091EB01BC01CD0160277127822793277A
:101CB00006C0BC01CD01682979298A299B290E9487
:101CC0008120ADC01F70DD2039F0812F0E94C92016
:101CD000802F0E94E816A3C0802F0E94DD16812F5E
:101CE0000E948B209CC0802F32EF931609F440C0D5
:101CF000391538F090EF991661F0E1EF9E1699F1E1
:101D000070C0F3EF9F16D9F124EF921609F44EC07C
:101D100068C0DD2019F134E03A1508F47CC01F7169
:101D200081E090E0A0E0B0E0AC01BD0104C0440F50
:101D3000551F661F771F1A95D2F78091E801909181
:101D4000E901A091EA01B091EB018A019B0108270A
:101D500019272A273B27C901B80125C025E02A15E4
:101D600008F459C0DCCFDD2029F0812F8F712CC001
:101D7000DD20D9F3812F8F710E948B204CC0DD2094
:101D800079F01F7181E090E0A0E0B0E0BC01CD01EE
:101D900004C0660F771F881F991F1A95D2F703C0DA
:101DA00060E070E0CB010E94812035C0DD2079F039
:101DB0001F71812F0E94C92038E0139FC001112498
:101DC00083608093C804812F0E94C92024C081E0D1
:101DD0000E94B02081E08A15F0F482E00E94B020D9
:101DE0001AC0DD2039F0AA2009F4BFCF802F0E944D
:101DF000591711C0AA2009F4BDCF893349F49FEFC8
:101E0000E7EEF3E09150E040F040E1F700C0000061
:101E1000802F0E94F21688EF8B0D843010F40E9400
:101E20001604CC20A9F08091C80480FD11C0F701F0
:101E300012828595859585950E94C920C7010E94CB
:101E4000120A8091C8048595859585950E948B20FE
:101E500085E0F701DE01119601900D928A95E1F778
:101E600089819A810E942A20EA81F0E008E0809F1F
:101E7000E00DF11D112483E0EE0FFF1F8A95E1F7BD
:101E80008981E80FF11DEE0FFF1FE25EFD4F859186
:101E9000949145C069E2B1CCEE59FF4F0C94FD24FA
:101EA00081608093F10161E0869536C04CE256E096
:101EB00065E376E02CC045E356E06CE276E027C0AF
:101EC00045ED55E06EED75E022C04EED55E065ED57
:101ED00075E01DC04DEB55E069EC75E018C049ECAC
:101EE00055E06DEB75E013C045EA55E061EB75E038
:101EF0000EC041EB55E065EA75E009C047EE55E0DC
:101F000068EF75E004C048EF55E067EE75E00E94A9
:101F10004804D5CC61E081E00E940906D0CC2A9625
:101F20000FB6F894DEBF0FBECDBFDF91CF911F91EA
:101F30000F91FF90EF90DF90CF90BF90AF909F9068
:101F40008F900895BC0184E00C94061DBC0183E0D1
:101F50000C94061DCF93DF93CDB7DEB762970FB613
:101F6000F894DEBF0FBECDBF84B7877F84BF0FB6A6
:101F7000F894A89580916000886180936000109229
:101F800060000FBE90E080E80FB6F8948093610087
:101F9000909361000FBE85B7806885BF85B7806864
:101FA00085BF0E945F1B0E947E1B8091E2008460BF
:101FB0008093E2007894809156048823A1F01091D8
:101FC000E9001F709091EC00892F817090FD80E8EE
:101FD000182B1092E9008091E80083FD0E945218AE
:101FE0001F701093E90082E084BD93E095BD9AEFE5
:101FF00097BD80936E000E945006809315018091DA
:102000001501882321F0109200018AE003C08AE0C4
:1020100080930001809301010E945006882331F0D3
:1020200062E070E085E091E00E9428238091150134
:1020300080911501811102C094E001C090E090935D
:10204000E70184E0891B8093E60184E30E946D062A
:1020500086EC0E946D0687E90E946D0684E90E9465
:102060006D0604E311E0FCE3EF2EF1E0FF2ED80152
:102070008D918D010E946D06E016F106C1F7EEED1F
:10208000F1E086EE91E0ABEFB1E011921D928E1778
:102090009F07D9F780E090E00E949B248C3E9E4FE2
:1020A00011F00E94401F0E945006811106C062E09C
:1020B00070E085E091E00E9431231092290480E8CD
:1020C000809308020E94E3216DE070E081E394E0D8
:1020D0000E94FD17892B09F03FC08091290463E01D
:1020E00070E081FD36C08EE294E00E94FD17892BDE
:1020F00099F56DE070E08EE194E00E94FD17892B68
:1021000059F50E949D1EDC01CB01805A9541AF4FCD
:10211000BF4F80932D0490932E04A0932F04B0936F
:10212000300480E092E0E9E2F2E0DF019C011D92E0
:1021300021503040E1F78FEF9FEF90932C04809374
:102140002B0481E0809332048093310410922A049E
:1021500003C08BE294E0C9CF80E090E00E949B2412
:102160008C3E9E4F11F00E94401F82E090E00E9442
:102170008D24809340040E942F1F9093ED01809343
:10218000EC0183E090E00E948D24682F70E080E0F5
:1021900090E00E94EA208091F601811139C080E030
:1021A00090E00E949B248C3E9E4F21F00E94401F95
:1021B0000E94390688E090E00E9495246093F10126
:1021C0007093F2018093F3019093F4018091F001F8
:1021D00083608093F0016E7F71F40E94390688E07D
:1021E00090E00E9495246093F1017093F201809336
:1021F000F3019093F4010E949A048091F10180FF11
:1022000004C060E086950E94090681E08093F60193
:1022100080911501811106C085E38093170186E640
:102220008093160120911701E22FE295EF70F0E004
:1022300031A12F7081E090E0AC01022E01C0440F6B
:102240000A94EAF7542F5095352331A332A1432B3A
:1022500042A340911601A42FA295AF70B0E09196D1
:102260003C9191974F70042E01C0880F0A94EAF7B1
:10227000982F9095932391969C93919792969C91E9
:102280009297892B92968C93929780A190E002C0AE
:10229000959587952A95E2F7817090962C9130E07C
:1022A00002C0359527954A95E2F720FD02C090E0DF
:1022B00001C092E0892B809307029091150181E083
:1022C000982790930602891B8093F7018FE191E094
:1022D0009093F9018093F801CC24CA94DD24D3941F
:1022E00022242394312C80915604853009F03AC081
:1022F00080915604843021F11092FA0180E4A8E123
:10230000B0E00FB6F894A895A09360000FBE80933C
:10231000600083B7817F846083BF83B7816083BFA0
:102320007894889583B78E7F83BF0FB6F894A8956D
:1023300080916000886180936000109260000FBE01
:1023400080915504882309F4CECF0E94A808EBEFB2
:10235000F1E081918111A5C223E032E02E173F0701
:10236000C1F7C1CF0E94A808B82E0E94500688234A
:1023700009F462C0E1E4F4E0ABEFB1E000E010E0AA
:10238000302F2D919191922709F450C080E0FF24C5
:10239000F3944F2D492309F444C08F8338872F21AC
:1023A00081E009F480E089870E94A91E8160782F6E
:1023B0009B878A874F81588569858B850E944E034C
:1023C000F801EF5BFB4F8081F826F082A0910702B5
:1023D0004A2F440F440F20911701E22FE295EF702E
:1023E000F0E080A190E02F7002C0959587952A9526
:1023F000E2F78170992750911601E52FE295EF7071
:10240000F0E020A130E05F7002C0359527955A9525
:10241000E2F7D901A170BB2720FF1EC0A2E0B0E007
:102420001BC08F5FFF0C883009F0B3CF0F5F1F4FC9
:102430000830110509F0A4CFCC86CD861E860E94F7
:10244000A91E8160782F988B8F874C855D856E855E
:1024500088890E944E03BACFA82BB92BA42BA09336
:102460000702E0910602AF70B0E0A45CBE4F9C9101
:1024700080910502890F843044F00E2E000CFF0B72
:10248000ED5FFD4F90819F5F09C08D3F44F40E2E9C
:10249000000CFF0BED5FFD4F908191509083082E53
:1024A000000C990B64E070E00E94E924809305021F
:1024B00080913204882309F406C120912B043091C5
:1024C0002C042115310509F4D7C080912A0481110B
:1024D000D3C0482E512C7101082E02C0EE0CFF1CF7
:1024E0000A94E2F7A9014E215F21452B11F48F5F79
:1024F000F0CF90912904920175E0220F331F7A9555
:10250000E1F790FD12C08295880F807680931A01C2
:10251000220F232F221F330B319520931D01815E43
:1025200080931B0110921E0112C055E0369527952D
:102530005A95E1F7220F220F220F20931A011092D1
:102540001D01295F20931B0133E030931E0124E617
:1025500030E047E050E068E171E088E70E947022D7
:10256000892B09F089C08091290480FD23C0C20114
:1025700045E0880F991F4A95E1F7AC01475D5D4F33
:1025800004E610E020E230E060E488E70E94972251
:10259000892B09F071C00E942204E094F09480918C
:1025A0002B0490912C04E822F922F0922C04E09262
:1025B0002B0462C0A9E0B2E0E0E21D92EA95E9F7DF
:1025C00035E0440C551C3A95E1F720E531E03A8BB3
:1025D000298B4CE451E0A989BA898D91BA8BA98BDA
:1025E000FA019191AF018201090F111D075D1D4F85
:1025F00090E0875F9D4FFC0127E0922E9F01281BF2
:10260000390B722C01C0770C2A95EAF7B801812C9E
:10261000DB01AD90BD01A720292D28192770622E5E
:10262000022E000C330BBA2D01C0BB0F6A94EAF7DF
:102630006B2E3195219531092770332701C0A6945F
:102640002A95EAF76A28A0806A286082839428E0A5
:102650008212DECF9A9431963FEF9312CFCF8989C1
:102660009A898455914009F0B6CF04E610E020E243
:1026700030E049E052E088CF80913104882319F19D
:102680000E949D1E00912D0410912E0420912F0474
:1026900030913004DC01CB01801B910BA20BB30BFA
:1026A0008F3F9F4FAF4FBF4770F480913204882314
:1026B00051F062E070E08EE394E00E94FD17892BF8
:1026C00011F410923104B1100E94220486E0E9E373
:1026D000F4E0DE01119601900D928A95E1F7E09009
:1026E0003B04F0903C0400913D0410913E04109294
:1026F0003B0410923C0410923D0410923E04E11001
:1027000003C0FF2009F44FC0809137049091380432
:102710000E948E1E9C0190913604992309F4D7C023
:102720002333310508F43FC09F3F19F09F5F90931A
:102730003604EE2061F00E94E01D1E1414F09FEF9D
:1027400001C091E0899F802D112480933B04FF20DC
:1027500061F00E94E01D1F1414F09FEF01C091E092
:10276000899F802D112480933C0430913B043323B6
:10277000D1F020913C042223B1F045EB3403C00199
:102780001124992319F090933B0402C0D0923B048A
:1027900035EB2303C0011124992319F090933C04D5
:1027A00002C0D0923C04011103C0112309F44FC0B0
:1027B00080913404909135040E948E1E9C0190916A
:1027C0003304992309F488C02536310508F43FC045
:1027D0009F3F19F09F5F90933304002361F00E94A4
:1027E000BE1D101614F09FEF01C091E0899F802D4F
:1027F000112480933D04112361F00E94BE1D111627
:1028000014F09FEF01C091E0899F802D11248093E7
:102810003E0430913D043323D1F020913E04222325
:10282000B1F045EB3403C0011124992319F09093C2
:102830003D0402C0D0923D0435EB2303C0011124B6
:10284000992319F090933E0402C0D0923E048091E7
:102850003B0481110BC080913C04811107C0809121
:102860003D04811103C080913E0481110E94B51E78
:10287000EB82FC820D831E8386E0FE013196A9E384
:10288000B4E001900D928A95E1F70E9416049091B0
:102890003F04891709F427CD0E94160480933F0452
:1028A00022CD80E189BD82E189BD09B400FEFDCF62
:1028B0008091D8008F7D8093D8008091E000826065
:1028C0008093E0008091E00081FDFCCF0CCD2D32A3
:1028D000314008F02BCF67CF2D32314008F07ACF4E
:1028E000B6CF0F931F93CF93DF9380916D048295A2
:1028F0008F7009F05DC080916A04882309F458C084
:1029000080919F0410916E04609168047091690435
:10291000C0916B04D0916C0491E06F3F09F090E09E
:10292000292F06E0811709F443C0209721F07F3F4B
:1029300021F030E003C031E001C0322F90E030FDE3
:1029400034C0089FF001099FF00D1124DF01A15947
:10295000BB4F11963C911197371327C03C9136130A
:1029600024C012963C91129731111FC013964D91BD
:102970005C9114974C1B5D0B483C5105B0F4809161
:102980006D048F70806180936D04EC58FB4F8081E3
:102990008F708061808388E694E00E94120ADF9144
:1029A000CF911F910F910C94F42001968770BACFAC
:1029B000DF91CF911F910F9108950E941F20292F21
:1029C0002F70E92FE295EF704E2F50E0FA01329709
:1029D000EE30F105B8F4EA58FF4F0C94FD24803F27
:1029E00099F018F4883E70F40FC0843F59F40CC07D
:1029F000883E50F0813F31F407C0822F869586953E
:102A00008695089580E0089581E008959F92AF92A1
:102A1000BF92CF92DF92EF92FF920F931F93CF93CB
:102A2000DF93CDB7DEB761970FB6F894DEBF0FBE68
:102A3000CDBF8C0185E0F801DE011D9601900D925D
:102A40008A95E1F7F80190818181E28030916804F4
:102A50006091690440916B0450916C0441155105DB
:102A600031F06F3F31F421E03F3F19F403C021E022
:102A700001C020E0F22FF1709F2E20FD23C1F8014C
:102A8000C380D48028E6A22E24E0B22EF0906A04FF
:102A9000F601E41BF50BFF2009F4CEC020916D0474
:102AA000E83CF10508F099C0422F407F09F051C081
:102AB000681311C039130FC0FE2CE1100CC02F7029
:102AC000206120936D04C5010E94120A80916D045B
:102AD000F801858337C1CD2831F08F3F31F421E0F3
:102AE0009F3F19F403C021E001C020E020FD03C096
:102AF00021E02E2502C020E030E0F22FF170FF2E01
:102B000020FF1DC020919F0440916E0456E02417C1
:102B100009F4F6C030E0529FF001539FF00D1124EC
:102B2000E159FB4F6181861306C06081961303C093
:102B30006281E61204C02F5F3F4F2770E8CFFE2C62
:102B4000EE2009F4FFC080916D04816080936D04D4
:102B500050C0681307C0391305C0E11003C0F80165
:102B600025838DC09D878E878D859E850E94DD146F
:102B7000882369F1EE2059F120916D04822F82950E
:102B80008F7090E0029774F08091680490916904CE
:102B900098878F831986DB86CA862C87CE01079695
:102BA0000E94120A86E0F801A8E6B4E001900D92B6
:102BB0008A95E1F70E9471140DC06817E1F09D87B6
:102BC0008E878D859E850E94DD1481111EC0C801EF
:102BD0000E94120AFF24F394B5C0422F407F69F788
:102BE00088E694E00E94120A86E0F50111928A9527
:102BF000E9F7F12CA7C03913E2CFE110E0CFF801DB
:102C00002583C8010E94120A57C0EE2001F32091CB
:102C10006D04822F82958F7090E002971CF2809154
:102C20006804909169049A8389831B82DD82CC8237
:102C30002E83CE010196B4CFE83CF105E8F5FE2CD9
:102C4000EE2029F2681327C0391325C020916D04A6
:102C500020FD18C0822F82958F70482F50E04115BB
:102C6000510581F0F80125834F30510541F08F5F08
:102C7000982F9295907F822F8F70892B8583C80122
:102C80000E94120A86E0F801A8E6B4E001900D92D5
:102C90008A95E1F757C09D878E878D859E850E9416
:102CA000DD1481117FCF80916D04816080936D046C
:102CB000C8010E94120A46C086E0F50111928A9569
:102CC000E9F740C0EE2009F482CF9D878E878D857D
:102CD0009E850E94DD14F82E882309F478CF86E0C3
:102CE000F801A8E6B4E001900D928A95E1F7809191
:102CF0006804909169040E941F200E94711422C0F0
:102D00009D878E878D859E850E941F20292F229565
:102D10002F70223028F49F7039F0811105C00BC04C
:102D2000243028F49F7049F4805E883020F0C80178
:102D30000E94120A9F2CF92C05C0F8019581907F02
:102D400099F7F9CF8F2D61960FB6F894DEBF0FBEBD
:102D5000CDBFDF91CF911F910F91FF90EF90DF904A
:102D6000CF90BF90AF909F9008951092CA04109298
:102D7000C9040E94B01FE9E3F4E086E0DF011D9280
:102D80008A95E9F710923604109233041092D50414
:102D90000E94B51E80E090E00E94000480E090E078
:102DA0000C94EA031092CB0486E0E2E6F4E0DF0143
:102DB0001D928A95E9F70C94B516882341F0809509
:102DC0009091CB0489238093CB040C94B01F089579
:102DD000882339F09091CB04892B8093CB040C94F9
:102DE000B01F0895882309F463C0823869F40E94F3
:102DF000160481FF5DC069E380E694E00E94151F20
:102E00000E94B01F69E30EC0833891F40E9416043B
:102E100080FF4EC063E580E694E00E94151F0E948B
:102E2000B01F63E580E694E00E94081F0C94B01F79
:102E3000843869F40E94160482FF3AC067E480E691
:102E400094E00E94151F0E94B01F67E4EBCF9CEF37
:102E5000980F913A10F4682FE5CF90E2980F9830D0
:102E600088F4877021E030E0A90102C0440F551FAB
:102E70008A95E2F7CA0180959091CB0489238093CB
:102E8000CB04D4CF9BE5980F933020F480E090E002
:102E90000C94000498E5980F973120F480E090E0BE
:102EA0000C94EA03803F20F00E94391D0C94B51E5B
:102EB0000895CF93882309F49EC0C82F8238B1F4B7
:102EC0000E94160481FD97C069E380E694E00E94A9
:102ED000151F0E94B01F2FEF81EE94E0215080401B
:102EE0009040E1F700C0000069E317C08338E1F4C7
:102EF0000E94160480FD7FC063E580E694E00E9496
:102F0000151F0E94B01F2FEF81EE94E021508040EA
:102F10009040E1F700C0000063E580E694E00E9485
:102F2000081FCF910C94B01F8438B1F40E9416048E
:102F300082FD61C067E480E694E00E94151F0E9454
:102F4000B01F2FEF81EE94E0215080409040E1F7D8
:102F500000C0000067E4E1CF8CEF8C0F813A80F471
:102F6000E2E6F4E088E694E02191C217E1F18E17E1
:102F70009F07D1F76C2F80E694E00E94151FD1CFF8
:102F800080E28C0F883068F4C77081E090E001C067
:102F9000880FCA95EAF79091CB04892B8093CB04D4
:102FA000C0CFEBE5EC0FE33040F4F0E0EC5AFE4F1D
:102FB000808190E0CF910C940004E8E5EC0FE731BC
:102FC00050F4F0E0EE0FFF1FE95AFE4F808191812F
:102FD000CF910C94EA03C03F70F08C2F0E94001E2A
:102FE000CF910C94B51E6C2F80E694E00E94081FD0
:102FF0000E94B01FBFCFCF910895EF92FF920F9321
:103000001F93CF93DF93EC017B0164E670E088E7C8
:103010000E94E9218C01EC0EFD1ECE15DF0561F04A
:1030200017FD0AC0FE01849164E670E00E94402210
:103030008C012196892B89F30E94C422C801DF915B
:10304000CF911F910F91FF90EF900895EF92FF9213
:103050000F931F93CF93DF937C018B010E94FE207F
:10306000811119C0E70101151105A1F08091E80057
:1030700085FD0AC08091E8008E778093E8000E9469
:10308000FE20882381F307C089918093F1000150CD
:103090001109E9CF80E0DF91CF911F910F91FF904F
:1030A000EF9008951F93CF93DF93CDB7DEB7AA9724
:1030B0000FB6F894DEBF0FBECDBFE8E5F4E0809117
:1030C000F100819324E0E036F207C9F780915904BA
:1030D000833009F460C030F4813071F0823009F43B
:1030E0009AC0B1C08A3009F486C08B3009F46BC035
:1030F000893009F0A8C020C080915804813A09F0B5
:10310000A2C08091E800877F8093E80080915C04F2
:1031100090915D04892B21F468E08CE494E003C075
:1031200060E080E090E070E00E9485218091E800FE
:103130008B778093E80087C080915804813209F032
:1031400082C080915C0490915D04029708F07BC07E
:103150008091E800877F8093E8008091E80082FDFD
:1031600005C0809156048111F8CF6DC02091F30005
:103170008091F20090E0922B029729F48091F10067
:103180008B7F813021F48091F10080934B048091FA
:10319000E8008B7754C080915804813A09F053C0FD
:1031A00080915C0490915D04892B09F04CC0809162
:1031B000E800877F8093E8008091E80080FFFCCFE3
:1031C0008091290137C0809158048132E1F58091C6
:1031D0005C0490915D04892BB1F58091E800877FB4
:1031E0008093E8000E94312180915A048093290144
:1031F0000E94D21628C080915804813221F5809116
:10320000E800877F8093E8000E94312180915B0471
:1032100080934A0418C080915804813AA1F48091A7
:10322000E800877F8093E8008091E80080FFFCCF72
:1032300080914A048093F1008091E8008E7780931A
:10324000E8000E9431218091E80083FFCCC1809189
:10325000580490915904492F50E04A30510508F024
:10326000C2C1FA01EC57FF4F0C94FD24803821F0C5
:10327000823809F0B8C108C0809154049091550477
:10328000992389F082600FC080915C048F70873031
:1032900008F0A9C18093E9008091EB0085FB8827A5
:1032A00080F91092E9009091E800977F9093E800F0
:1032B0008093F1001092F10065C1282F2D7F09F055
:1032C00092C1882319F0823061F08DC180915A0437
:1032D000813009F088C1933009F080E08093550473
:1032E0002EC080915A0481112AC080915C048F7095
:1032F0002FEF280F263008F076C18093E900209147
:10330000EB0020FF1CC0933021F48091EB00806221
:1033100014C09091EB0090619093EB0021E030E0BD
:10332000A90102C0440F551F8A95E2F74093EA00B5
:103330001092EA008091EB0088608093EB0010927D
:10334000E9008091E800877F20C181114CC1109174
:103350005A041F778091E3008078812B8093E300EB
:103360008091E800877F8093E8000E94312180915E
:10337000E80080FFFCCF8091E30080688093E30049
:10338000111102C082E001C083E0809356042BC17A
:103390008058823008F027C180915A0490915B04D4
:1033A0008C3D53E0950779F583E08A838AE289832F
:1033B0004FB7F894DE01139620E03EE051E2E32F90
:1033C000F0E050935700E49120FF03C0E295EF70C6
:1033D0003F5FEF708E2F90E0EA3010F0C79601C08B
:1033E000C0968D939D932F5F243149F74FBF8091F5
:1033F000E800877F8093E8006AE270E0CE010196E2
:103400000E948521AEC040915C0450915D04292F3B
:10341000332723303105A9F068F42130310509F450
:10342000F1C02230310509F0DEC08BE390E0E1E02D
:10343000F5E044C02132310521F12232310571F12C
:10344000D2C0992781309105A1F058F0029709F078
:10345000CAC0EEE4F5E0E4918E2F90E0EEE4F5E0F2
:103460002AC0E0E8F5E0E4918E2F90E0E0E8F5E096
:1034700022C0EEE6F5E0E4918E2F90E0EEE6F5E076
:103480001AC04115510509F4C2C04130510509F077
:10349000AAC089E090E0ECE2F5E010C041155105CA
:1034A00009F4BAC04130510509F09DC081E890E0AF
:1034B000E0E4F4E003C0009709F495C02091E8002F
:1034C000277F2093E80020915E0430915F048217EB
:1034D000930708F49C0140E02115310589F18091A2
:1034E0005604882309F43DC08530D9F18091E80065
:1034F00083FD37C08091E80082FD2FC08091E800F5
:1035000080FFEACF4091F3008091F20090E0942B8D
:103510002115310559F08830910540F444914093CC
:10352000F1003196215031090196F2CF41E0089720
:1035300009F040E08091E8008E778093E800CCCFDE
:103540004111CDCF0AC080915604882351F08530B7
:1035500041F08091E80083FD04C08091E80082FF83
:10356000F2CF8091E8008B778093E8003CC08038F0
:10357000D1F58091E800877F8093E800809157041F
:103580008093F1008091E8008E778093E8000E949C
:10359000312129C0811127C080915A0490915B0488
:1035A0009927029704F58091E800877F8093E800CF
:1035B00010915A04109357040E943121111106C032
:1035C0008091E30087FD02C081E001C084E0809328
:1035D000560442E061EC81E00E94502142E261EC3D
:1035E00082E00E9450218091E80083FF1AC0809100
:1035F000E800877F8093E8008091EB0080628093F1
:10360000EB000FC082E190E0ECE3F5E057CF89E0FA
:1036100090E0E3E1F5E052CF80E490E0E1ECF4E00B
:103620004DCFAA960FB6F894DEBF0FBECDBFDF9187
:10363000CF911F9108951F920F920FB60F921124F0
:103640002F933F934F935F936F937F938F939F93AA
:10365000AF93BF93CF93DF93EF93FF93C091E900B4
:10366000CF708091EC00D82FD17080FDD0E81092FF
:10367000E9008091F000877F8093F00078940E94A9
:1036800052181092E9008091F00088608093F00059
:10369000CD2BCF70C093E900FF91EF91DF91CF91D7
:1036A000BF91AF919F918F917F916F915F914F915A
:1036B0003F912F910F900FBE0F901F901895E8ED3E
:1036C000F0E080818E7F80831092E2001092DA0019
:1036D0001092E100A0EEB0E08C9181608C9380812B
:1036E0008F77808319BCA7EDB0E08C918E7F8C938F
:1036F00080818F7E8083109249040895CF92DF925B
:10370000EF92FF920F931F93CF93DF93C8EDD0E01A
:1037100088818F7E8883E7EDF0E0808181608083FF
:1037200084E082BF81E08093490488818E7F888312
:1037300002EE10E0F80110821092DA0081EEC82E3D
:10374000D12CF601108288818F77888388818068E8
:10375000888388818F7D888319BC109256041092CB
:103760005704109255041092540490EEE92EF12C57
:10377000F70180818B7F808388818160888342E02C
:1037800060E080E00E945021F60180818E7F80837E
:10379000F801808181608083808188608083F70167
:1037A00080818E7F8083888180618883DF91CF9143
:1037B0001F910F91FF90EF90DF90CF9008951F928F
:1037C0000F920FB60F9211242F933F934F935F9355
:1037D0006F937F938F939F93AF93BF93EF93FF93D9
:1037E0008091E10082FF09C08091E20082FF05C064
:1037F0008091E1008B7F8093E1008091DA0080FF6F
:103800002AC08091D80080FF26C08091DA008E7F88
:103810008093DA008091D90080FF18C080E189BDD3
:1038200082E189BD09B400FEFDCF81E0809356049A
:103830008091490481110FC00E945F1B0E947E1B72
:103840008091E20084608093E20005C019BC109270
:103850005604109249048091E10080FF17C08091C6
:10386000E20080FF13C08091E2008E7F8093E2002F
:103870008091E20080618093E2008091D8008062B4
:103880008093D80019BC85E0809356048091E100B4
:1038900084FF32C08091E20084FF2EC080E189BDA8
:1038A00082E189BD09B400FEFDCF8091D8008F7DF3
:1038B0008093D8008091E1008F7E8093E100809119
:1038C000E2008F7E8093E2008091E200816080932D
:1038D000E20080915704882311F084E007C08091B2
:1038E000E30087FD02C081E001C083E080935604BD
:1038F0000E94D2160E9416048091E10083FF27C027
:103900008091E20083FF23C08091E100877F809354
:10391000E10082E080935604109257048091E10008
:103920008E7F8093E1008091E2008E7F8093E200A1
:103930008091E20080618093E20042E060E080E0FC
:103940000E9450218091F00088608093F000FF91E8
:10395000EF91BF91AF919F918F917F916F915F9107
:103960004F913F912F910F900FBE0F901F90189580
:1039700080914B04089522E02093E9002FEF3091CD
:10398000E800215035FD06C035ED3A95F1F700000D
:103990002111F5CF2091E80025FF0BC040E050E059
:1039A00066E070E00E9426188091E8008E77809390
:1039B000E8000895CF93DF9321E02093E9002FEFF3
:1039C0003091E800215035FD06C035ED3A95F1F70C
:1039D00000002111F5CF2091E80025FF14C0EC0173
:1039E00040E050E068E070E00E9426188091E80016
:1039F0008E778093E80088E0FE01ACE4B4E00190AB
:103A00000D928A95E1F7DF91CF910895CF93DF93DF
:103A100000D01F92CDB7DEB790915604943019F5BF
:103A200089837B836A8382E08093E9008FEF9091A2
:103A3000E800815095FD06C095ED9A95F1F70000DC
:103A40008111F5CF8091E80085FF0DC040E050E086
:103A500063E070E0CE0101960E9426188091E80094
:103A60008E778093E8000F900F900F90DF91CF91A9
:103A70000895803F39F480913C0487FF6AC010921A
:103A80003C0467C0813F29F480913C041816BCF3C4
:103A900060C090913B04823F29F497FF5AC0109276
:103AA0003B0457C0833F19F41916CCF352C09091D0
:103AB0003D04893F31F419160CF04BC010923D04BF
:103AC00048C08A3F19F497FF44C0F8CF8B3F39F4C0
:103AD00080913E0487FF3DC010923E043AC08C3F67
:103AE00029F480913E041816BCF333C0843F21F4BE
:103AF00080913A048E7F17C0853F21F480913A046B
:103B00008D7F11C0863F21F480913A048B7F0BC0DA
:103B1000873F21F480913A04877F05C0883F31F4C4
:103B200080913A048F7E80933A0413C08D3F21F434
:103B30008091D5048E7F0BC08E3F21F48091D504F7
:103B40008D7F05C08F3F29F48091D5048B7F8093B2
:103B5000D50480913B04811106C080913C04811101
:103B600002C01092360480913D04811106C08091FC
:103B70003E04811102C01092330408958091D5044F
:103B800080FD16C081FD16C082FD18C080913304EF
:103B9000882391F0883290F428E0829FC00111249C
:103BA00068E270E00E94E924862F672B29F007C0A5
:103BB00082E0089584E0089581E0089588E0089502
:103BC0008091D50480FD14C081FD14C082FD16C013
:103BD00080913604882381F0843180F422E3829F2F
:103BE000C001112464E170E00E94E924862F089549
:103BF0008CE0089589E1089585E0089582E30895B1
:103C0000803F21F40E94E01D819504C0813F29F48A
:103C10000E94E01D80933C040895823F21F40E949D
:103C2000E01D819504C0833F29F40E94E01D80932C
:103C30003B040895893F19F40E94BE1D05C08A3FC8
:103C400031F40E94BE1D819580933D0408958B3F01
:103C500021F40E94BE1D819504C08C3F29F40E946E
:103C6000BE1D80933E040895843F21F480913A0460
:103C7000816017C0853F21F480913A04826011C0B1
:103C8000863F21F480913A0484600BC0873F21F481
:103C900080913A04886005C0883F31F480913A04ED
:103CA000806180933A0408958D3F21F48091D5047A
:103CB00081600BC08E3F21F48091D504826005C0E5
:103CC0008F3F29F48091D50484608093D5040895B2
:103CD00078941F920F920FB60F9211248F939F9397
:103CE000AF93BF938091D1049091D204A091D3045B
:103CF000B091D4040196A11DB11D8093D10490937D
:103D0000D204A093D304B093D404BF91AF919F91F8
:103D10008F910F900FBE0F901F9018959C014FB779
:103D2000F8948091D1049091D204A091D304B091E1
:103D3000D4044FBF821B930B08952FB7F894609162
:103D4000D1047091D2048091D3049091D4042FBFF8
:103D500008952FB7F8948091D1049091D204A09146
:103D6000D304B091D4042FBF08950E94A91E2091BE
:103D70003B04211104C020913C04222321F09093A4
:103D800038048093370420913D04211104C0209110
:103D90003E04222321F09093350480933404E09173
:103DA000F801F091F901309749F082E080933904ED
:103DB0000480F581E02D89E394E0099408951F9231
:103DC0000F920FB60F9211248F939F93AF93BF93CF
:103DD0008091FA01811113C08091D1049091D20495
:103DE000A091D304B091D4044196A11DB11D80933C
:103DF000D1049093D204A093D304B093D404BF9180
:103E0000AF919F918F910F900FBE0F901F901895BB
:103E10009C012A5F3F4FFC014281461301C0128280
:103E2000019682179307B9F708959C01FC01329619
:103E30009FEF80E04191461789F09F3F19F44111AF
:103E400001C0982F8F5F8630A9F79F3F39F0F901A5
:103E5000E90FF11D97FDFA95628308950895CF93B8
:103E600084E090E00E948D24C82F81E290E00E94BF
:103E70008D242C2F30E0A901582BCA01CF91089531
:103E80006CEE7EEF80E090E00E94BF2460E082E074
:103E900090E00E94A12460E083E090E00E94A124D1
:103EA0001092CD041092CE041092CF041092D00440
:103EB00060E084E090E00E94A12460E081E290E074
:103EC0000E94A12460E085E090E00E94A12460E0CF
:103ED00086E090E00E94A1246FEF87E090E00E94CE
:103EE000A12440E050E0BA0188E090E00E94B324B1
:103EF00060E08DE090E00E94A12440E050E0BA0133
:103F000088E190E00E94B32460E087E190E00E94A5
:103F1000A12440E050E0BA018CE190E00E94B3247B
:103F200060E080E290E00E94A12440E050E0BA010D
:103F300088E190E00E94B32440E050E0BA018FE0B5
:103F400090E00E94B32440E050E0BA0183E190E0A9
:103F50000C94B3248091CC0481111092CC04089568
:103F60009091CB048091CA04892B2091C904982F89
:103F7000922B909360048091CC04882389F0892B44
:103F800080936004E2E6F4E097E080E0915029F04D
:103F900021912223D9F38F5FF9CF81110E94AA1FAB
:103FA000E091F801F091F901309731F00280F3814E
:103FB000E02D80E694E009940895BF92CF92DF92BD
:103FC000EF92FF920F931F93CF93DF938C01C090DA
:103FD000E801D090E901E090EA01F090EB018091D6
:103FE000CD049091CE04A091CF04B091D004C82A02
:103FF000D92AEA2AFB2ACFE1D0E0D701C6010C2E4C
:1040000004C0B695A795979587950A94D2F780FD39
:1040100004C0219790F7B12C07C0BC2EB8018C2F9B
:104020000E9484060197A9F38B2DDF91CF911F91F8
:104030000F91FF90EF90DF90CF90BF900895CF93B6
:10404000DF93EC010E94DD1FBE010E948406DF9118
:10405000CF91089528E0929F800D1124682F6695D6
:1040600066956695982F977085E0689FB00111243A
:1040700040E050E080E0FB01E40FF51FE056FB4F0D
:10408000208130E0092E02C0369527950A94E2F788
:1040900021703327042E01C0220F0A94EAF7822BE5
:1040A0004F5F5F4F4530510531F7089528E0929FEB
:1040B000800D1124E82FE695E695E695877051E08E
:1040C00001C0550F8A95EAF785E0E89FF0011124B9
:1040D000E056FB4F20E030E070E04081CB01022E43
:1040E00002C0969587950A94E2F78170819584279E
:1040F0008523842781932F5F3F4F2530310569F752
:1041000008956093E8017093E9018093EA01909328
:10411000EB010C94B5160F931F9341E050E060E063
:1041200070E004C0440F551F661F771F8A95D2F7B1
:1041300040955095609570958091E8019091E901C6
:10414000A091EA01B091EB018A019B010823192398
:104150002A233B23C901B8011F910F910C948120A0
:104160002091C804809582238093C804982F97706B
:1041700079F430E0482F082E000C550B2417350732
:1041800039F08595859585950E948B201092C804FD
:1041900008950F931F9341E050E060E070E004C089
:1041A000440F551F661F771F8A95D2F78091E8014B
:1041B0009091E901A091EA01B091EB018A019B0184
:1041C000082B192B2A2B3B2BC901B8011F910F91EA
:1041D0000C9481206093CD047093CE048093CF041F
:1041E0009093D0040C94B51680919F0490916E0426
:1041F000891719F08F5F8770FBCF08952091E40035
:104200003091E50095E64091EC00842F817040FFED
:1042100023C08091E80080FD1DC080915604882352
:1042200099F0853099F08091EB0085FD11C04091A7
:10423000E4005091E5002417350729F3915011F05F
:104240009A01E1CF84E0089582E0089583E0089523
:1042500081E0089580E008954091E80042FFDDCFBD
:1042600008958091580487FF11C08091E80082FD75
:1042700005C0809156048111F8CF11C08091E800EB
:104280008B770BC080915604882349F08091E80019
:1042900080FFF8CF8091E8008E778093E800089542
:1042A000982F973068F59093E900981739F070913E
:1042B000EC002091ED005091F00003C0242F762FE8
:1042C00050E021FD02C09F5FECCF3091EB003E7FBC
:1042D0003093EB003091ED003D7F3093ED00309155
:1042E000EB0031603093EB007093EC002093ED0015
:1042F0005093F0002091EE0027FDE5CF80E0089577
:104300008F708093E90081E0089520915E043091E0
:104310005F042617370748F06115710539F42091BD
:10432000E8002E772093E80001C0B901FC0120E0ED
:104330006115710579F1809156048823F1F185307A
:10434000F1F18091E80083FD3CC08091E80082FD9E
:104350002EC08091E80080FFEBCF2091F300809188
:10436000F20090E0922B6115710551F088309105B3
:1043700038F421912093F100615071090196F3CF37
:1043800021E0089709F020E08091E8008E77809383
:10439000E800CECF2111CFCF0AC0809156048823E8
:1043A00061F0853061F08091E80083FD0AC0809162
:1043B000E80082FFF2CF80E0089582E0089583E074
:1043C000089581E008951092B9008CE08093B800C0
:1043D0000895EF92FF920F931F93CF93DF93182FBF
:1043E000EB011092BC0084EA8093BC000E94A91EDD
:1043F0007C018091BC0087FD0EC0CF3F8FEFD807B6
:10440000C1F30E94A91E8E199F098C179D0788F37E
:104410008EEF9FEF2EC08091B900887F883041F0E9
:104420008091B900887F803119F08FEF9FEF21C014
:104430001093BB0084E88093BC000E94A91E8C01ED
:104440008091BC0087FD0CC0CF3F8FEFD807C1F330
:104450000E94A91E801B910B8C179D0788F3D8CF53
:104460008091B900887F883111F08034F1F680E0C6
:1044700090E0DF91CF911F910F91FF90EF90089501
:104480000F931F93CF93DF93EB018093BB0084E8DE
:104490008093BC000E94A91E8C018091BC0087FD06
:1044A0000EC0CF3F8FEFD807C1F30E94A91E801B1B
:1044B000910B8C179D0788F38EEF9FEF0CC0209116
:1044C000B900287F81E090E0283211F480E090E08C
:1044D000919581959109DF91CF911F910F91089549
:1044E000CF92DF92EF92FF920F931F93CF93DF93C0
:1044F0006B018A017901B9010E94E921E6010C0DE5
:104500001D1DC017D10761F424E92093BC00DF9181
:10451000CF911F910F91FF90EF90DF90CF90089572
:1045200097FDF2CFB70189910E944022EACFCF9246
:10453000DF92EF92FF920F931F93CF93DF93C62FDB
:104540006A017901B8010E94E92197FD11C0B80103
:104550008C2F0E944022E601EC0CFD1CCE15DF05DD
:1045600039F097FD05C0B80189910E944022F6CF2D
:1045700024E92093BC00DF91CF911F910F91FF9010
:10458000EF90DF90CF90089584E98093BC00089568
:104590008EE14A9B02C08150E1F74A9BFECF08950D
:1045A0005A9880E28A95F1F75A9A0895FC012AE018
:1045B0002A95F1F790E020E080E031E0261779F0CD
:1045C00040E14A95F1F7880F4A9B02C0816093272A
:1045D00000C0000040E14A95F1F72F5FEFCF20E1E6
:1045E0002A95F1F729B100C0000030E13A95F1F7C2
:1045F00022FB222720F992272081920F9083089591
:10460000EF92FF920F931F93CF93DF931F92CDB73B
:10461000DEB719828C017C01E60EF11C0E151F0518
:1046200059F00E94C82268E0CE0101960E94D6226D
:10463000F80181938F01F2CF81E09981911180E09F
:104640000F90DF91CF911F910F91FF90EF90089500
:104650009093D8048093D7046093D604529A5A9AC0
:1046600008959093D8048093D7046093D604529809
:104670005A9AEA9AE9E6F0E080818F7C8083089577
:10468000615091E001C0990F6A95EAF720E031E0AE
:10469000992361F0492F482319F05A9A232701C022
:1046A0005A9840E24A95F1F79695F2CF222311F0FD
:1046B0005A9A01C05A9880E28A95F1F75A9808955B
:1046C000FF920F931F93CF93DF93EC018C01060FA2
:1046D000111DC017D10741F0F9900E94D02268E067
:1046E0008F2D0E944023F5CFDF91CF911F910F9125
:1046F000FF9008951F920F920FB60F9211240F93FF
:104700001F932F933F934F935F936F937F938F9359
:104710009F93AF93BF93EF93FF93CF93DF931F923A
:10472000CDB7DEB719820E94C82267E0CE0101969C
:104730000E94D622382F369536953695932F96952A
:104740009570232F2570920F292F2370969596959B
:104750008770920F891348C08981811145C080916B
:10476000D604831708F440C080E18A95F1F75A9A7D
:10477000529AA2E0AA95F1F700C00091D7041091D7
:10478000D804B8E03B9F000D111D11245A98F80180
:104790006581662321F0868197810E9460230E94B3
:1047A000D022F0E1FA95F1F75A9852985A9A80E19E
:1047B0008A95F1F7D80112966C911297662369F0E9
:1047C00013968D919C9114970E940023D801ED912E
:1047D000FC91811105C082E004C0D801ED91FC91EB
:1047E00088E080830E94C8220F90DF91CF91FF91D3
:1047F000EF91BF91AF919F918F917F916F915F9159
:104800004F913F912F911F910F910F900FBE0F90DD
:104810001F9018950F931F93CF93DF932091D60489
:1048200030E0281739070CF471C09C0193E0220F87
:10483000331F9A95E1F7C091D704D091D804C20FE5
:10484000D31FF894529A5A9845E04A95F1F7000020
:10485000982F969595708570890F982F93708695EF
:104860008695890F8901082B0E94D02284E08A95C1
:10487000F1F700C067E0802F0E94402340E14A9595
:10488000F1F752985A9A4A9902C000C0FCCF87E0CB
:1048900090E04A9B0EC0019751F4529A5A9AE881CF
:1048A000F98181E08083789481E090E031C000C09C
:1048B000F0CF6D81662381F08E819F810E9400235D
:1048C00081110AC0529A5A9AE881F98182E0808364
:1048D000789482E090E01CC00E94C82280E28A9511
:1048E000F1F75A98529A40E14A95F1F76A816623A6
:1048F00021F08B819C810E9460230E94D022E8815C
:10490000F9811082789480E090E002C084E090E029
:10491000DF91CF911F910F910895F999FECF92BD2C
:1049200081BDF89A992780B50895A6E1B0E044E0EA
:1049300050E00C94C724A8E1B0E042E050E00C94B1
:10494000C724262FF999FECF92BD81BDF89A019711
:1049500000B4021639F01FBA20BD0FB6F894FA9AC7
:10496000F99A0FBE08950396272F0E94A2240E9451
:10497000A124252F0E94A224242F0C94A224019666
:10498000272F0E94A2240C94A124DC01CB01FC015E
:10499000F999FECF06C0F2BDE1BDF89A319600B498
:1049A0000D9241505040B8F70895AA1BBB1B51E12E
:1049B00007C0AA1FBB1FA617B70710F0A61BB70B8F
:1049C000881F991F5A95A9F780959095BC01CD0134
:1049D000089597FB072E16F4009407D077FD09D0B1
:1049E0000E94D52407FC05D03EF4909581959F4FF9
:1049F0000895709561957F4F0895EE0FFF1F059004
:0A4A0000F491E02D0994F894FFCF23
:104A0A000014001414DD0100DD0105D801D70108E6
:104A1A00CF010000000135660021007F220003B8A3
:104A2A001CDA1CBB1CA60FA20F01000134C6979406
:104A3A000000000036323331F7F6F5F400FF0100CA
:104A4A00010000FFFF0000010001FF00000810182C
:104A5A0018100800818283E200E900EA00B500B676
:104A6A0000B700CD008301CC008A01920194012194
:104A7A0002230224022502260227022A02B300B4D4
:064A8A00006F0070000047
:00000001FF
